{
  "abi": [
    {
      "type": "constructor",
      "inputs": [],
      "stateMutability": "nonpayable"
    },
    {
      "type": "receive",
      "stateMutability": "payable"
    },
    {
      "type": "function",
      "name": "initialize",
      "inputs": [
        {
          "name": "umintAddr",
          "type": "address",
          "internalType": "address"
        }
      ],
      "outputs": [],
      "stateMutability": "nonpayable"
    },
    {
      "type": "function",
      "name": "onERC1155BatchReceived",
      "inputs": [
        {
          "name": "",
          "type": "address",
          "internalType": "address"
        },
        {
          "name": "",
          "type": "address",
          "internalType": "address"
        },
        {
          "name": "",
          "type": "uint256[]",
          "internalType": "uint256[]"
        },
        {
          "name": "",
          "type": "uint256[]",
          "internalType": "uint256[]"
        },
        {
          "name": "",
          "type": "bytes",
          "internalType": "bytes"
        }
      ],
      "outputs": [
        {
          "name": "",
          "type": "bytes4",
          "internalType": "bytes4"
        }
      ],
      "stateMutability": "view"
    },
    {
      "type": "function",
      "name": "onERC1155Received",
      "inputs": [
        {
          "name": "",
          "type": "address",
          "internalType": "address"
        },
        {
          "name": "",
          "type": "address",
          "internalType": "address"
        },
        {
          "name": "",
          "type": "uint256",
          "internalType": "uint256"
        },
        {
          "name": "",
          "type": "uint256",
          "internalType": "uint256"
        },
        {
          "name": "",
          "type": "bytes",
          "internalType": "bytes"
        }
      ],
      "outputs": [
        {
          "name": "",
          "type": "bytes4",
          "internalType": "bytes4"
        }
      ],
      "stateMutability": "view"
    },
    {
      "type": "function",
      "name": "onERC721Received",
      "inputs": [
        {
          "name": "",
          "type": "address",
          "internalType": "address"
        },
        {
          "name": "",
          "type": "address",
          "internalType": "address"
        },
        {
          "name": "",
          "type": "uint256",
          "internalType": "uint256"
        },
        {
          "name": "",
          "type": "bytes",
          "internalType": "bytes"
        }
      ],
      "outputs": [
        {
          "name": "",
          "type": "bytes4",
          "internalType": "bytes4"
        }
      ],
      "stateMutability": "view"
    },
    {
      "type": "function",
      "name": "supportsInterface",
      "inputs": [
        {
          "name": "interfaceId",
          "type": "bytes4",
          "internalType": "bytes4"
        }
      ],
      "outputs": [
        {
          "name": "",
          "type": "bool",
          "internalType": "bool"
        }
      ],
      "stateMutability": "view"
    },
    {
      "type": "function",
      "name": "transfer",
      "inputs": [
        {
          "name": "amount",
          "type": "uint256",
          "internalType": "uint256"
        },
        {
          "name": "recipient",
          "type": "address",
          "internalType": "address"
        }
      ],
      "outputs": [],
      "stateMutability": "nonpayable"
    },
    {
      "type": "function",
      "name": "transferERC1155",
      "inputs": [
        {
          "name": "asset",
          "type": "address",
          "internalType": "address"
        },
        {
          "name": "tokenId",
          "type": "uint256",
          "internalType": "uint256"
        },
        {
          "name": "amount",
          "type": "uint256",
          "internalType": "uint256"
        },
        {
          "name": "recipient",
          "type": "address",
          "internalType": "address"
        }
      ],
      "outputs": [],
      "stateMutability": "nonpayable"
    },
    {
      "type": "function",
      "name": "transferERC20",
      "inputs": [
        {
          "name": "asset",
          "type": "address",
          "internalType": "address"
        },
        {
          "name": "amount",
          "type": "uint256",
          "internalType": "uint256"
        },
        {
          "name": "recipient",
          "type": "address",
          "internalType": "address"
        }
      ],
      "outputs": [],
      "stateMutability": "nonpayable"
    },
    {
      "type": "function",
      "name": "transferERC721",
      "inputs": [
        {
          "name": "asset",
          "type": "address",
          "internalType": "address"
        },
        {
          "name": "tokenId",
          "type": "uint256",
          "internalType": "uint256"
        },
        {
          "name": "recipient",
          "type": "address",
          "internalType": "address"
        }
      ],
      "outputs": [],
      "stateMutability": "nonpayable"
    },
    {
      "type": "function",
      "name": "umint",
      "inputs": [],
      "outputs": [
        {
          "name": "",
          "type": "address",
          "internalType": "address"
        }
      ],
      "stateMutability": "view"
    },
    {
      "type": "function",
      "name": "version",
      "inputs": [],
      "outputs": [
        {
          "name": "",
          "type": "uint8",
          "internalType": "uint8"
        }
      ],
      "stateMutability": "view"
    },
    {
      "type": "event",
      "name": "Initialized",
      "inputs": [
        {
          "name": "version",
          "type": "uint8",
          "indexed": false,
          "internalType": "uint8"
        }
      ],
      "anonymous": false
    },
    {
      "type": "event",
      "name": "Transfer",
      "inputs": [
        {
          "name": "from",
          "type": "address",
          "indexed": true,
          "internalType": "address"
        },
        {
          "name": "to",
          "type": "address",
          "indexed": true,
          "internalType": "address"
        },
        {
          "name": "value",
          "type": "uint256",
          "indexed": false,
          "internalType": "uint256"
        }
      ],
      "anonymous": false
    },
    {
      "type": "error",
      "name": "FailedToSendETH",
      "inputs": []
    },
    {
      "type": "error",
      "name": "InsufficientBalance",
      "inputs": []
    },
    {
      "type": "error",
      "name": "UMintContractOnly",
      "inputs": []
    },
    {
      "type": "error",
      "name": "UnsupportedCollection",
      "inputs": []
    },
    {
      "type": "error",
      "name": "ZeroAddressDetected",
      "inputs": []
    }
  ],
  "bytecode": {
    "object": "0x608060405234801561001057600080fd5b5061001961001e565b6100dd565b600054610100900460ff161561008a5760405162461bcd60e51b815260206004820152602760248201527f496e697469616c697a61626c653a20636f6e747261637420697320696e697469604482015266616c697a696e6760c81b606482015260840160405180910390fd5b60005460ff908116146100db576000805460ff191660ff9081179091556040519081527f7f26b83ff96e1f2b6a682f133852f6798a09c465da95921460cefb38474024989060200160405180910390a15b565b610d0d806100ec6000396000f3fe6080604052600436106100a05760003560e01c8063b7760c8f11610064578063b7760c8f1461018f578063bc197c81146101af578063c4d66de8146101cf578063c5d6d84a146101ef578063c9d5bde414610224578063f23a6e611461024457600080fd5b806301ffc9a7146100ac578063150b7a02146100f25780633d7fe7911461012b57806354fd4d501461014d57806397e10a791461016f57600080fd5b366100a757005b600080fd5b3480156100b857600080fd5b506100dd6100c736600461094f565b6001600160e01b0319166301ffc9a760e01b1490565b60405190151581526020015b60405180910390f35b3480156100fe57600080fd5b5061011261010d3660046109e5565b610264565b6040516001600160e01b031990911681526020016100e9565b34801561013757600080fd5b5061014b610146366004610a54565b610321565b005b34801561015957600080fd5b5060005460405160ff90911681526020016100e9565b34801561017b57600080fd5b5061014b61018a366004610a9a565b6103e9565b34801561019b57600080fd5b5061014b6101aa366004610ad6565b6104a7565b3480156101bb57600080fd5b506101126101ca366004610b47565b6105e9565b3480156101db57600080fd5b5061014b6101ea366004610c02565b6106a9565b3480156101fb57600080fd5b50600080516020610cb8833981519152546040516001600160a01b0390911681526020016100e9565b34801561023057600080fd5b5061014b61023f366004610a9a565b6107df565b34801561025057600080fd5b5061011261025f366004610c1d565b610891565b600080600080516020610cb8833981519152546001600160a01b0316905080634f129c53336040516001600160e01b031960e084901b1681526001600160a01b039091166004820152602401602060405180830381865afa1580156102cd573d6000803e3d6000fd5b505050506040513d601f19601f820116820180604052508101906102f19190610c95565b61030e57604051630179a91760e01b815260040160405180910390fd5b50630a85bd0160e11b9695505050505050565b600080516020610cb8833981519152546001600160a01b0316336001600160a01b03161461036257604051630126d2ed60e61b815260040160405180910390fd5b604051637921219560e11b81523060048201526001600160a01b038281166024830152604482018590526064820184905260a06084830152600060a483015285919082169063f242432a9060c401600060405180830381600087803b1580156103ca57600080fd5b505af11580156103de573d6000803e3d6000fd5b505050505050505050565b600080516020610cb8833981519152546001600160a01b0316336001600160a01b03161461042a57604051630126d2ed60e61b815260040160405180910390fd5b60405163a9059cbb60e01b81526001600160a01b0382811660048301526024820184905284919082169063a9059cbb906044016020604051808303816000875af115801561047c573d6000803e3d6000fd5b505050506040513d601f19601f820116820180604052508101906104a09190610c95565b5050505050565b600080516020610cb8833981519152546001600160a01b0316336001600160a01b0316146104e857604051630126d2ed60e61b815260040160405180910390fd5b6001600160a01b03811661050f57604051632887dd7560e11b815260040160405180910390fd5b4782111561053057604051631e9acf1760e31b815260040160405180910390fd5b6000816001600160a01b03168360405160006040518083038185875af1925050503d806000811461057d576040519150601f19603f3d011682016040523d82523d6000602084013e610582565b606091505b50509050806105a4576040516338822c1360e11b815260040160405180910390fd5b6040518381526001600160a01b0383169030907fddf252ad1be2c89b69c2b068fc378daa952ba7f163c4a11628f55a4df523b3ef9060200160405180910390a3505050565b600080600080516020610cb8833981519152546001600160a01b0316905080634f129c53336040516001600160e01b031960e084901b1681526001600160a01b039091166004820152602401602060405180830381865afa158015610652573d6000803e3d6000fd5b505050506040513d601f19601f820116820180604052508101906106769190610c95565b61069357604051630179a91760e01b815260040160405180910390fd5b5063bc197c8160e01b9998505050505050505050565b600054610100900460ff16158080156106c95750600054600160ff909116105b806106e35750303b1580156106e3575060005460ff166001145b61074a5760405162461bcd60e51b815260206004820152602e60248201527f496e697469616c697a61626c653a20636f6e747261637420697320616c72656160448201526d191e481a5b9a5d1a585b1a5e995960921b606482015260840160405180910390fd5b6000805460ff19166001179055801561076d576000805461ff0019166101001790555b600080516020610cb883398151915280546001600160a01b0319166001600160a01b03841617905580156107db576000805461ff0019169055604051600181527f7f26b83ff96e1f2b6a682f133852f6798a09c465da95921460cefb38474024989060200160405180910390a15b5050565b600080516020610cb8833981519152546001600160a01b0316336001600160a01b03161461082057604051630126d2ed60e61b815260040160405180910390fd5b604051632142170760e11b81523060048201526001600160a01b038281166024830152604482018490528491908216906342842e0e90606401600060405180830381600087803b15801561087357600080fd5b505af1158015610887573d6000803e3d6000fd5b5050505050505050565b600080600080516020610cb8833981519152546001600160a01b0316905080634f129c53336040516001600160e01b031960e084901b1681526001600160a01b039091166004820152602401602060405180830381865afa1580156108fa573d6000803e3d6000fd5b505050506040513d601f19601f8201168201806040525081019061091e9190610c95565b61093b57604051630179a91760e01b815260040160405180910390fd5b5063f23a6e6160e01b979650505050505050565b60006020828403121561096157600080fd5b81356001600160e01b03198116811461097957600080fd5b9392505050565b80356001600160a01b038116811461099757600080fd5b919050565b60008083601f8401126109ae57600080fd5b50813567ffffffffffffffff8111156109c657600080fd5b6020830191508360208285010111156109de57600080fd5b9250929050565b6000806000806000608086880312156109fd57600080fd5b610a0686610980565b9450610a1460208701610980565b935060408601359250606086013567ffffffffffffffff811115610a3757600080fd5b610a438882890161099c565b969995985093965092949392505050565b60008060008060808587031215610a6a57600080fd5b610a7385610980565b93506020850135925060408501359150610a8f60608601610980565b905092959194509250565b600080600060608486031215610aaf57600080fd5b610ab884610980565b925060208401359150610acd60408501610980565b90509250925092565b60008060408385031215610ae957600080fd5b82359150610af960208401610980565b90509250929050565b60008083601f840112610b1457600080fd5b50813567ffffffffffffffff811115610b2c57600080fd5b6020830191508360208260051b85010111156109de57600080fd5b60008060008060008060008060a0898b031215610b6357600080fd5b610b6c89610980565b9750610b7a60208a01610980565b9650604089013567ffffffffffffffff80821115610b9757600080fd5b610ba38c838d01610b02565b909850965060608b0135915080821115610bbc57600080fd5b610bc88c838d01610b02565b909650945060808b0135915080821115610be157600080fd5b50610bee8b828c0161099c565b999c989b5096995094979396929594505050565b600060208284031215610c1457600080fd5b61097982610980565b60008060008060008060a08789031215610c3657600080fd5b610c3f87610980565b9550610c4d60208801610980565b94506040870135935060608701359250608087013567ffffffffffffffff811115610c7757600080fd5b610c8389828a0161099c565b979a9699509497509295939492505050565b600060208284031215610ca757600080fd5b8151801515811461097957600080fdfe566d440b979bc9e5a337886738f9560de13aa96b2c2e9264f6d942e67f59c97aa26469706673582212201349ecbeabede64e1e492c443bfce5a52f7c8c705ef31e75ba998dc3e38f297864736f6c63430008120033",
    "linkReferences": {}
  },
  "methodIdentifiers": {
    "initialize(address)": "c4d66de8",
    "onERC1155BatchReceived(address,address,uint256[],uint256[],bytes)": "bc197c81",
    "onERC1155Received(address,address,uint256,uint256,bytes)": "f23a6e61",
    "onERC721Received(address,address,uint256,bytes)": "150b7a02",
    "supportsInterface(bytes4)": "01ffc9a7",
    "transfer(uint256,address)": "b7760c8f",
    "transferERC1155(address,uint256,uint256,address)": "3d7fe791",
    "transferERC20(address,uint256,address)": "97e10a79",
    "transferERC721(address,uint256,address)": "c9d5bde4",
    "umint()": "c5d6d84a",
    "version()": "54fd4d50"
  },
  "id": 64
}