{
  "abi": [
    {
      "inputs": [
        {
          "internalType": "string",
          "name": "_name",
          "type": "string"
        },
        {
          "internalType": "string",
          "name": "_symbol",
          "type": "string"
        },
        {
          "internalType": "string",
          "name": "_initialBaseURI",
          "type": "string"
        }
      ],
      "stateMutability": "nonpayable",
      "type": "constructor"
    },
    {
      "anonymous": false,
      "inputs": [
        {
          "indexed": true,
          "internalType": "address",
          "name": "owner",
          "type": "address"
        },
        {
          "indexed": true,
          "internalType": "address",
          "name": "approved",
          "type": "address"
        },
        {
          "indexed": true,
          "internalType": "uint256",
          "name": "tokenId",
          "type": "uint256"
        }
      ],
      "name": "Approval",
      "type": "event"
    },
    {
      "anonymous": false,
      "inputs": [
        {
          "indexed": true,
          "internalType": "address",
          "name": "owner",
          "type": "address"
        },
        {
          "indexed": true,
          "internalType": "address",
          "name": "operator",
          "type": "address"
        },
        {
          "indexed": false,
          "internalType": "bool",
          "name": "approved",
          "type": "bool"
        }
      ],
      "name": "ApprovalForAll",
      "type": "event"
    },
    {
      "anonymous": false,
      "inputs": [
        {
          "indexed": true,
          "internalType": "address",
          "name": "previousOwner",
          "type": "address"
        },
        {
          "indexed": true,
          "internalType": "address",
          "name": "newOwner",
          "type": "address"
        }
      ],
      "name": "OwnershipTransferred",
      "type": "event"
    },
    {
      "anonymous": false,
      "inputs": [
        {
          "indexed": true,
          "internalType": "address",
          "name": "from",
          "type": "address"
        },
        {
          "indexed": true,
          "internalType": "address",
          "name": "to",
          "type": "address"
        },
        {
          "indexed": true,
          "internalType": "uint256",
          "name": "tokenId",
          "type": "uint256"
        }
      ],
      "name": "Transfer",
      "type": "event"
    },
    {
      "inputs": [
        {
          "internalType": "address",
          "name": "to",
          "type": "address"
        },
        {
          "internalType": "uint256",
          "name": "tokenId",
          "type": "uint256"
        }
      ],
      "name": "approve",
      "outputs": [],
      "stateMutability": "nonpayable",
      "type": "function"
    },
    {
      "inputs": [
        {
          "internalType": "address",
          "name": "owner",
          "type": "address"
        }
      ],
      "name": "balanceOf",
      "outputs": [
        {
          "internalType": "uint256",
          "name": "",
          "type": "uint256"
        }
      ],
      "stateMutability": "view",
      "type": "function"
    },
    {
      "inputs": [
        {
          "internalType": "uint256",
          "name": "tokenId",
          "type": "uint256"
        }
      ],
      "name": "getApproved",
      "outputs": [
        {
          "internalType": "address",
          "name": "",
          "type": "address"
        }
      ],
      "stateMutability": "view",
      "type": "function"
    },
    {
      "inputs": [
        {
          "internalType": "address",
          "name": "owner",
          "type": "address"
        },
        {
          "internalType": "address",
          "name": "operator",
          "type": "address"
        }
      ],
      "name": "isApprovedForAll",
      "outputs": [
        {
          "internalType": "bool",
          "name": "",
          "type": "bool"
        }
      ],
      "stateMutability": "view",
      "type": "function"
    },
    {
      "inputs": [
        {
          "internalType": "address",
          "name": "_recipient",
          "type": "address"
        },
        {
          "internalType": "uint256",
          "name": "_quantity",
          "type": "uint256"
        }
      ],
      "name": "mint",
      "outputs": [],
      "stateMutability": "payable",
      "type": "function"
    },
    {
      "inputs": [],
      "name": "name",
      "outputs": [
        {
          "internalType": "string",
          "name": "",
          "type": "string"
        }
      ],
      "stateMutability": "view",
      "type": "function"
    },
    {
      "inputs": [],
      "name": "owner",
      "outputs": [
        {
          "internalType": "address",
          "name": "",
          "type": "address"
        }
      ],
      "stateMutability": "view",
      "type": "function"
    },
    {
      "inputs": [
        {
          "internalType": "uint256",
          "name": "tokenId",
          "type": "uint256"
        }
      ],
      "name": "ownerOf",
      "outputs": [
        {
          "internalType": "address",
          "name": "",
          "type": "address"
        }
      ],
      "stateMutability": "view",
      "type": "function"
    },
    {
      "inputs": [],
      "name": "renounceOwnership",
      "outputs": [],
      "stateMutability": "nonpayable",
      "type": "function"
    },
    {
      "inputs": [
        {
          "internalType": "address",
          "name": "from",
          "type": "address"
        },
        {
          "internalType": "address",
          "name": "to",
          "type": "address"
        },
        {
          "internalType": "uint256",
          "name": "tokenId",
          "type": "uint256"
        }
      ],
      "name": "safeTransferFrom",
      "outputs": [],
      "stateMutability": "nonpayable",
      "type": "function"
    },
    {
      "inputs": [
        {
          "internalType": "address",
          "name": "from",
          "type": "address"
        },
        {
          "internalType": "address",
          "name": "to",
          "type": "address"
        },
        {
          "internalType": "uint256",
          "name": "tokenId",
          "type": "uint256"
        },
        {
          "internalType": "bytes",
          "name": "data",
          "type": "bytes"
        }
      ],
      "name": "safeTransferFrom",
      "outputs": [],
      "stateMutability": "nonpayable",
      "type": "function"
    },
    {
      "inputs": [
        {
          "internalType": "address",
          "name": "operator",
          "type": "address"
        },
        {
          "internalType": "bool",
          "name": "approved",
          "type": "bool"
        }
      ],
      "name": "setApprovalForAll",
      "outputs": [],
      "stateMutability": "nonpayable",
      "type": "function"
    },
    {
      "inputs": [
        {
          "internalType": "string",
          "name": "_newBaseURI",
          "type": "string"
        }
      ],
      "name": "setBaseURI",
      "outputs": [],
      "stateMutability": "nonpayable",
      "type": "function"
    },
    {
      "inputs": [
        {
          "internalType": "bytes4",
          "name": "interfaceId",
          "type": "bytes4"
        }
      ],
      "name": "supportsInterface",
      "outputs": [
        {
          "internalType": "bool",
          "name": "",
          "type": "bool"
        }
      ],
      "stateMutability": "view",
      "type": "function"
    },
    {
      "inputs": [],
      "name": "symbol",
      "outputs": [
        {
          "internalType": "string",
          "name": "",
          "type": "string"
        }
      ],
      "stateMutability": "view",
      "type": "function"
    },
    {
      "inputs": [
        {
          "internalType": "uint256",
          "name": "tokenId",
          "type": "uint256"
        }
      ],
      "name": "tokenURI",
      "outputs": [
        {
          "internalType": "string",
          "name": "",
          "type": "string"
        }
      ],
      "stateMutability": "view",
      "type": "function"
    },
    {
      "inputs": [],
      "name": "totalSupply",
      "outputs": [
        {
          "internalType": "uint256",
          "name": "",
          "type": "uint256"
        }
      ],
      "stateMutability": "view",
      "type": "function"
    },
    {
      "inputs": [
        {
          "internalType": "address",
          "name": "from",
          "type": "address"
        },
        {
          "internalType": "address",
          "name": "to",
          "type": "address"
        },
        {
          "internalType": "uint256",
          "name": "tokenId",
          "type": "uint256"
        }
      ],
      "name": "transferFrom",
      "outputs": [],
      "stateMutability": "nonpayable",
      "type": "function"
    },
    {
      "inputs": [
        {
          "internalType": "address",
          "name": "newOwner",
          "type": "address"
        }
      ],
      "name": "transferOwnership",
      "outputs": [],
      "stateMutability": "nonpayable",
      "type": "function"
    }
  ],
  "bytecode": {
    "object": "0x60806040523480156200001157600080fd5b5060405162001b1c38038062001b1c8339810160408190526200003491620001a3565b82826000620000448382620002c3565b506001620000538282620002c3565b505050620000706200006a6200008860201b60201c565b6200008c565b60086200007e8282620002c3565b505050506200038f565b3390565b600680546001600160a01b038381166001600160a01b0319831681179093556040519116919082907f8be0079c531659141344cd1fd0a4f28419497f9722a3daafe3b4186f6b6457e090600090a35050565b634e487b7160e01b600052604160045260246000fd5b600082601f8301126200010657600080fd5b81516001600160401b0380821115620001235762000123620000de565b604051601f8301601f19908116603f011681019082821181831017156200014e576200014e620000de565b816040528381526020925086838588010111156200016b57600080fd5b600091505b838210156200018f578582018301518183018401529082019062000170565b600093810190920192909252949350505050565b600080600060608486031215620001b957600080fd5b83516001600160401b0380821115620001d157600080fd5b620001df87838801620000f4565b94506020860151915080821115620001f657600080fd5b6200020487838801620000f4565b935060408601519150808211156200021b57600080fd5b506200022a86828701620000f4565b9150509250925092565b600181811c908216806200024957607f821691505b6020821081036200026a57634e487b7160e01b600052602260045260246000fd5b50919050565b601f821115620002be57600081815260208120601f850160051c81016020861015620002995750805b601f850160051c820191505b81811015620002ba57828155600101620002a5565b5050505b505050565b81516001600160401b03811115620002df57620002df620000de565b620002f781620002f0845462000234565b8462000270565b602080601f8311600181146200032f5760008415620003165750858301515b600019600386901b1c1916600185901b178555620002ba565b600085815260208120601f198616915b8281101562000360578886015182559484019460019091019084016200033f565b50858210156200037f5787850151600019600388901b60f8161c191681555b5050505050600190811b01905550565b61177d806200039f6000396000f3fe6080604052600436106101145760003560e01c80636352211e116100a0578063a22cb46511610064578063a22cb465146102e9578063b88d4fde14610309578063c87b56dd14610329578063e985e9c514610349578063f2fde38b1461039257600080fd5b80636352211e1461026157806370a0823114610281578063715018a6146102a15780638da5cb5b146102b657806395d89b41146102d457600080fd5b806318160ddd116100e757806318160ddd146101ca57806323b872dd146101ee57806340c10f191461020e57806342842e0e1461022157806355f804b31461024157600080fd5b806301ffc9a71461011957806306fdde031461014e578063081812fc14610170578063095ea7b3146101a8575b600080fd5b34801561012557600080fd5b50610139610134366004611175565b6103b2565b60405190151581526020015b60405180910390f35b34801561015a57600080fd5b50610163610404565b60405161014591906111e2565b34801561017c57600080fd5b5061019061018b3660046111f5565b610496565b6040516001600160a01b039091168152602001610145565b3480156101b457600080fd5b506101c86101c336600461122a565b6104bd565b005b3480156101d657600080fd5b506101e060075481565b604051908152602001610145565b3480156101fa57600080fd5b506101c8610209366004611254565b6105d7565b6101c861021c36600461122a565b610608565b34801561022d57600080fd5b506101c861023c366004611254565b610650565b34801561024d57600080fd5b506101c861025c36600461131c565b61066b565b34801561026d57600080fd5b5061019061027c3660046111f5565b610683565b34801561028d57600080fd5b506101e061029c366004611365565b6106e3565b3480156102ad57600080fd5b506101c8610769565b3480156102c257600080fd5b506006546001600160a01b0316610190565b3480156102e057600080fd5b5061016361077d565b3480156102f557600080fd5b506101c8610304366004611380565b61078c565b34801561031557600080fd5b506101c86103243660046113bc565b610797565b34801561033557600080fd5b506101636103443660046111f5565b6107cf565b34801561035557600080fd5b50610139610364366004611438565b6001600160a01b03918216600090815260056020908152604080832093909416825291909152205460ff1690565b34801561039e57600080fd5b506101c86103ad366004611365565b610836565b60006001600160e01b031982166380ac58cd60e01b14806103e357506001600160e01b03198216635b5e139f60e01b145b806103fe57506301ffc9a760e01b6001600160e01b03198316145b92915050565b6060600080546104139061146b565b80601f016020809104026020016040519081016040528092919081815260200182805461043f9061146b565b801561048c5780601f106104615761010080835404028352916020019161048c565b820191906000526020600020905b81548152906001019060200180831161046f57829003601f168201915b5050505050905090565b60006104a1826108af565b506000908152600460205260409020546001600160a01b031690565b60006104c882610683565b9050806001600160a01b0316836001600160a01b03160361053a5760405162461bcd60e51b815260206004820152602160248201527f4552433732313a20617070726f76616c20746f2063757272656e74206f776e656044820152603960f91b60648201526084015b60405180910390fd5b336001600160a01b038216148061055657506105568133610364565b6105c85760405162461bcd60e51b815260206004820152603d60248201527f4552433732313a20617070726f76652063616c6c6572206973206e6f7420746f60448201527f6b656e206f776e6572206f7220617070726f76656420666f7220616c6c0000006064820152608401610531565b6105d2838361090e565b505050565b6105e1338261097c565b6105fd5760405162461bcd60e51b8152600401610531906114a5565b6105d28383836109fb565b610610610b5f565b60075460005b82811015610648576106288483610bb9565b81610632816114f2565b9250508080610640906114f2565b915050610616565b506007555050565b6105d283838360405180602001604052806000815250610797565b610673610b5f565b600861067f8282611567565b5050565b6000818152600260205260408120546001600160a01b0316806103fe5760405162461bcd60e51b8152602060048201526018602482015277115490cdcc8c4e881a5b9d985b1a59081d1bdad95b88125160421b6044820152606401610531565b60006001600160a01b03821661074d5760405162461bcd60e51b815260206004820152602960248201527f4552433732313a2061646472657373207a65726f206973206e6f7420612076616044820152683634b21037bbb732b960b91b6064820152608401610531565b506001600160a01b031660009081526003602052604090205490565b610771610b5f565b61077b6000610bd3565b565b6060600180546104139061146b565b61067f338383610c25565b6107a1338361097c565b6107bd5760405162461bcd60e51b8152600401610531906114a5565b6107c984848484610cf3565b50505050565b60606107da826108af565b60006107e4610d26565b90506000815111610804576040518060200160405280600081525061082f565b8061080e84610d35565b60405160200161081f929190611627565b6040516020818303038152906040525b9392505050565b61083e610b5f565b6001600160a01b0381166108a35760405162461bcd60e51b815260206004820152602660248201527f4f776e61626c653a206e6577206f776e657220697320746865207a65726f206160448201526564647265737360d01b6064820152608401610531565b6108ac81610bd3565b50565b6000818152600260205260409020546001600160a01b03166108ac5760405162461bcd60e51b8152602060048201526018602482015277115490cdcc8c4e881a5b9d985b1a59081d1bdad95b88125160421b6044820152606401610531565b600081815260046020526040902080546001600160a01b0319166001600160a01b038416908117909155819061094382610683565b6001600160a01b03167f8c5be1e5ebec7d5bd14f71427d1e84f3dd0314c0f7b2291e5b200ac8c7c3b92560405160405180910390a45050565b60008061098883610683565b9050806001600160a01b0316846001600160a01b031614806109cf57506001600160a01b0380821660009081526005602090815260408083209388168352929052205460ff165b806109f35750836001600160a01b03166109e884610496565b6001600160a01b0316145b949350505050565b826001600160a01b0316610a0e82610683565b6001600160a01b031614610a345760405162461bcd60e51b815260040161053190611656565b6001600160a01b038216610a965760405162461bcd60e51b8152602060048201526024808201527f4552433732313a207472616e7366657220746f20746865207a65726f206164646044820152637265737360e01b6064820152608401610531565b826001600160a01b0316610aa982610683565b6001600160a01b031614610acf5760405162461bcd60e51b815260040161053190611656565b600081815260046020908152604080832080546001600160a01b03199081169091556001600160a01b0387811680865260038552838620805460001901905590871680865283862080546001019055868652600290945282852080549092168417909155905184937fddf252ad1be2c89b69c2b068fc378daa952ba7f163c4a11628f55a4df523b3ef91a4505050565b6006546001600160a01b0316331461077b5760405162461bcd60e51b815260206004820181905260248201527f4f776e61626c653a2063616c6c6572206973206e6f7420746865206f776e65726044820152606401610531565b61067f828260405180602001604052806000815250610dc8565b600680546001600160a01b038381166001600160a01b0319831681179093556040519116919082907f8be0079c531659141344cd1fd0a4f28419497f9722a3daafe3b4186f6b6457e090600090a35050565b816001600160a01b0316836001600160a01b031603610c865760405162461bcd60e51b815260206004820152601960248201527f4552433732313a20617070726f766520746f2063616c6c6572000000000000006044820152606401610531565b6001600160a01b03838116600081815260056020908152604080832094871680845294825291829020805460ff191686151590811790915591519182527f17307eab39ab6107e8899845ad3d59bd9653f200f220920489ca2b5937696c31910160405180910390a3505050565b610cfe8484846109fb565b610d0a84848484610dfb565b6107c95760405162461bcd60e51b81526004016105319061169b565b6060600880546104139061146b565b60606000610d4283610efc565b600101905060008167ffffffffffffffff811115610d6257610d62611290565b6040519080825280601f01601f191660200182016040528015610d8c576020820181803683370190505b5090508181016020015b600019016f181899199a1a9b1b9c1cb0b131b232b360811b600a86061a8153600a8504945084610d9657509392505050565b610dd28383610fd4565b610ddf6000848484610dfb565b6105d25760405162461bcd60e51b81526004016105319061169b565b60006001600160a01b0384163b15610ef157604051630a85bd0160e11b81526001600160a01b0385169063150b7a0290610e3f9033908990889088906004016116ed565b6020604051808303816000875af1925050508015610e7a575060408051601f3d908101601f19168201909252610e779181019061172a565b60015b610ed7573d808015610ea8576040519150601f19603f3d011682016040523d82523d6000602084013e610ead565b606091505b508051600003610ecf5760405162461bcd60e51b81526004016105319061169b565b805181602001fd5b6001600160e01b031916630a85bd0160e11b1490506109f3565b506001949350505050565b60008072184f03e93ff9f4daa797ed6e38ed64bf6a1f0160401b8310610f3b5772184f03e93ff9f4daa797ed6e38ed64bf6a1f0160401b830492506040015b6d04ee2d6d415b85acef81000000008310610f67576d04ee2d6d415b85acef8100000000830492506020015b662386f26fc100008310610f8557662386f26fc10000830492506010015b6305f5e1008310610f9d576305f5e100830492506008015b6127108310610fb157612710830492506004015b60648310610fc3576064830492506002015b600a83106103fe5760010192915050565b6001600160a01b03821661102a5760405162461bcd60e51b815260206004820181905260248201527f4552433732313a206d696e7420746f20746865207a65726f20616464726573736044820152606401610531565b6000818152600260205260409020546001600160a01b03161561108f5760405162461bcd60e51b815260206004820152601c60248201527f4552433732313a20746f6b656e20616c7265616479206d696e746564000000006044820152606401610531565b6000818152600260205260409020546001600160a01b0316156110f45760405162461bcd60e51b815260206004820152601c60248201527f4552433732313a20746f6b656e20616c7265616479206d696e746564000000006044820152606401610531565b6001600160a01b038216600081815260036020908152604080832080546001019055848352600290915280822080546001600160a01b0319168417905551839291907fddf252ad1be2c89b69c2b068fc378daa952ba7f163c4a11628f55a4df523b3ef908290a45050565b6001600160e01b0319811681146108ac57600080fd5b60006020828403121561118757600080fd5b813561082f8161115f565b60005b838110156111ad578181015183820152602001611195565b50506000910152565b600081518084526111ce816020860160208601611192565b601f01601f19169290920160200192915050565b60208152600061082f60208301846111b6565b60006020828403121561120757600080fd5b5035919050565b80356001600160a01b038116811461122557600080fd5b919050565b6000806040838503121561123d57600080fd5b6112468361120e565b946020939093013593505050565b60008060006060848603121561126957600080fd5b6112728461120e565b92506112806020850161120e565b9150604084013590509250925092565b634e487b7160e01b600052604160045260246000fd5b600067ffffffffffffffff808411156112c1576112c1611290565b604051601f8501601f19908116603f011681019082821181831017156112e9576112e9611290565b8160405280935085815286868601111561130257600080fd5b858560208301376000602087830101525050509392505050565b60006020828403121561132e57600080fd5b813567ffffffffffffffff81111561134557600080fd5b8201601f8101841361135657600080fd5b6109f3848235602084016112a6565b60006020828403121561137757600080fd5b61082f8261120e565b6000806040838503121561139357600080fd5b61139c8361120e565b9150602083013580151581146113b157600080fd5b809150509250929050565b600080600080608085870312156113d257600080fd5b6113db8561120e565b93506113e96020860161120e565b925060408501359150606085013567ffffffffffffffff81111561140c57600080fd5b8501601f8101871361141d57600080fd5b61142c878235602084016112a6565b91505092959194509250565b6000806040838503121561144b57600080fd5b6114548361120e565b91506114626020840161120e565b90509250929050565b600181811c9082168061147f57607f821691505b60208210810361149f57634e487b7160e01b600052602260045260246000fd5b50919050565b6020808252602d908201527f4552433732313a2063616c6c6572206973206e6f7420746f6b656e206f776e6560408201526c1c881bdc88185c1c1c9bdd9959609a1b606082015260800190565b60006001820161151257634e487b7160e01b600052601160045260246000fd5b5060010190565b601f8211156105d257600081815260208120601f850160051c810160208610156115405750805b601f850160051c820191505b8181101561155f5782815560010161154c565b505050505050565b815167ffffffffffffffff81111561158157611581611290565b6115958161158f845461146b565b84611519565b602080601f8311600181146115ca57600084156115b25750858301515b600019600386901b1c1916600185901b17855561155f565b600085815260208120601f198616915b828110156115f9578886015182559484019460019091019084016115da565b50858210156116175787850151600019600388901b60f8161c191681555b5050505050600190811b01905550565b60008351611639818460208801611192565b83519083019061164d818360208801611192565b01949350505050565b60208082526025908201527f4552433732313a207472616e736665722066726f6d20696e636f72726563742060408201526437bbb732b960d91b606082015260800190565b60208082526032908201527f4552433732313a207472616e7366657220746f206e6f6e20455243373231526560408201527131b2b4bb32b91034b6b83632b6b2b73a32b960711b606082015260800190565b6001600160a01b0385811682528416602082015260408101839052608060608201819052600090611720908301846111b6565b9695505050505050565b60006020828403121561173c57600080fd5b815161082f8161115f56fea2646970667358221220eb41dd48b83fb150cab9761b488970454d49a4d6086ffb3e28b084957e3b477e64736f6c63430008120033",
    "linkReferences": {}
  },
  "methodIdentifiers": {
    "approve(address,uint256)": "095ea7b3",
    "balanceOf(address)": "70a08231",
    "getApproved(uint256)": "081812fc",
    "isApprovedForAll(address,address)": "e985e9c5",
    "mint(address,uint256)": "40c10f19",
    "name()": "06fdde03",
    "owner()": "8da5cb5b",
    "ownerOf(uint256)": "6352211e",
    "renounceOwnership()": "715018a6",
    "safeTransferFrom(address,address,uint256)": "42842e0e",
    "safeTransferFrom(address,address,uint256,bytes)": "b88d4fde",
    "setApprovalForAll(address,bool)": "a22cb465",
    "setBaseURI(string)": "55f804b3",
    "supportsInterface(bytes4)": "01ffc9a7",
    "symbol()": "95d89b41",
    "tokenURI(uint256)": "c87b56dd",
    "totalSupply()": "18160ddd",
    "transferFrom(address,address,uint256)": "23b872dd",
    "transferOwnership(address)": "f2fde38b"
  },
  "id": 62
}