{
  "abi": [
    {
      "type": "constructor",
      "inputs": [
        {
          "name": "name_",
          "type": "string",
          "internalType": "string"
        },
        {
          "name": "symbol_",
          "type": "string",
          "internalType": "string"
        },
        {
          "name": "initialBaseURI_",
          "type": "string",
          "internalType": "string"
        }
      ],
      "stateMutability": "nonpayable"
    },
    {
      "type": "function",
      "name": "balanceOf",
      "inputs": [
        {
          "name": "account",
          "type": "address",
          "internalType": "address"
        },
        {
          "name": "id",
          "type": "uint256",
          "internalType": "uint256"
        }
      ],
      "outputs": [
        {
          "name": "",
          "type": "uint256",
          "internalType": "uint256"
        }
      ],
      "stateMutability": "view"
    },
    {
      "type": "function",
      "name": "balanceOfBatch",
      "inputs": [
        {
          "name": "accounts",
          "type": "address[]",
          "internalType": "address[]"
        },
        {
          "name": "ids",
          "type": "uint256[]",
          "internalType": "uint256[]"
        }
      ],
      "outputs": [
        {
          "name": "",
          "type": "uint256[]",
          "internalType": "uint256[]"
        }
      ],
      "stateMutability": "view"
    },
    {
      "type": "function",
      "name": "isApprovedForAll",
      "inputs": [
        {
          "name": "account",
          "type": "address",
          "internalType": "address"
        },
        {
          "name": "operator",
          "type": "address",
          "internalType": "address"
        }
      ],
      "outputs": [
        {
          "name": "",
          "type": "bool",
          "internalType": "bool"
        }
      ],
      "stateMutability": "view"
    },
    {
      "type": "function",
      "name": "mint",
      "inputs": [
        {
          "name": "recipient",
          "type": "address",
          "internalType": "address"
        },
        {
          "name": "tokenId",
          "type": "uint256",
          "internalType": "uint256"
        },
        {
          "name": "quantity",
          "type": "uint256",
          "internalType": "uint256"
        }
      ],
      "outputs": [],
      "stateMutability": "payable"
    },
    {
      "type": "function",
      "name": "name",
      "inputs": [],
      "outputs": [
        {
          "name": "",
          "type": "string",
          "internalType": "string"
        }
      ],
      "stateMutability": "view"
    },
    {
      "type": "function",
      "name": "owner",
      "inputs": [],
      "outputs": [
        {
          "name": "",
          "type": "address",
          "internalType": "address"
        }
      ],
      "stateMutability": "view"
    },
    {
      "type": "function",
      "name": "renounceOwnership",
      "inputs": [],
      "outputs": [],
      "stateMutability": "nonpayable"
    },
    {
      "type": "function",
      "name": "safeBatchTransferFrom",
      "inputs": [
        {
          "name": "from",
          "type": "address",
          "internalType": "address"
        },
        {
          "name": "to",
          "type": "address",
          "internalType": "address"
        },
        {
          "name": "ids",
          "type": "uint256[]",
          "internalType": "uint256[]"
        },
        {
          "name": "amounts",
          "type": "uint256[]",
          "internalType": "uint256[]"
        },
        {
          "name": "data",
          "type": "bytes",
          "internalType": "bytes"
        }
      ],
      "outputs": [],
      "stateMutability": "nonpayable"
    },
    {
      "type": "function",
      "name": "safeTransferFrom",
      "inputs": [
        {
          "name": "from",
          "type": "address",
          "internalType": "address"
        },
        {
          "name": "to",
          "type": "address",
          "internalType": "address"
        },
        {
          "name": "id",
          "type": "uint256",
          "internalType": "uint256"
        },
        {
          "name": "amount",
          "type": "uint256",
          "internalType": "uint256"
        },
        {
          "name": "data",
          "type": "bytes",
          "internalType": "bytes"
        }
      ],
      "outputs": [],
      "stateMutability": "nonpayable"
    },
    {
      "type": "function",
      "name": "setApprovalForAll",
      "inputs": [
        {
          "name": "operator",
          "type": "address",
          "internalType": "address"
        },
        {
          "name": "approved",
          "type": "bool",
          "internalType": "bool"
        }
      ],
      "outputs": [],
      "stateMutability": "nonpayable"
    },
    {
      "type": "function",
      "name": "setBaseURI",
      "inputs": [
        {
          "name": "newBaseURI",
          "type": "string",
          "internalType": "string"
        }
      ],
      "outputs": [],
      "stateMutability": "nonpayable"
    },
    {
      "type": "function",
      "name": "supportsInterface",
      "inputs": [
        {
          "name": "interfaceId",
          "type": "bytes4",
          "internalType": "bytes4"
        }
      ],
      "outputs": [
        {
          "name": "",
          "type": "bool",
          "internalType": "bool"
        }
      ],
      "stateMutability": "view"
    },
    {
      "type": "function",
      "name": "symbol",
      "inputs": [],
      "outputs": [
        {
          "name": "",
          "type": "string",
          "internalType": "string"
        }
      ],
      "stateMutability": "view"
    },
    {
      "type": "function",
      "name": "tokenURI",
      "inputs": [
        {
          "name": "tokenId",
          "type": "uint256",
          "internalType": "uint256"
        }
      ],
      "outputs": [
        {
          "name": "",
          "type": "string",
          "internalType": "string"
        }
      ],
      "stateMutability": "view"
    },
    {
      "type": "function",
      "name": "totalBalances",
      "inputs": [
        {
          "name": "",
          "type": "uint256",
          "internalType": "uint256"
        }
      ],
      "outputs": [
        {
          "name": "",
          "type": "uint256",
          "internalType": "uint256"
        }
      ],
      "stateMutability": "view"
    },
    {
      "type": "function",
      "name": "totalSupply",
      "inputs": [],
      "outputs": [
        {
          "name": "",
          "type": "uint256",
          "internalType": "uint256"
        }
      ],
      "stateMutability": "view"
    },
    {
      "type": "function",
      "name": "transferOwnership",
      "inputs": [
        {
          "name": "newOwner",
          "type": "address",
          "internalType": "address"
        }
      ],
      "outputs": [],
      "stateMutability": "nonpayable"
    },
    {
      "type": "function",
      "name": "uri",
      "inputs": [
        {
          "name": "",
          "type": "uint256",
          "internalType": "uint256"
        }
      ],
      "outputs": [
        {
          "name": "",
          "type": "string",
          "internalType": "string"
        }
      ],
      "stateMutability": "view"
    },
    {
      "type": "event",
      "name": "ApprovalForAll",
      "inputs": [
        {
          "name": "account",
          "type": "address",
          "indexed": true,
          "internalType": "address"
        },
        {
          "name": "operator",
          "type": "address",
          "indexed": true,
          "internalType": "address"
        },
        {
          "name": "approved",
          "type": "bool",
          "indexed": false,
          "internalType": "bool"
        }
      ],
      "anonymous": false
    },
    {
      "type": "event",
      "name": "OwnershipTransferred",
      "inputs": [
        {
          "name": "previousOwner",
          "type": "address",
          "indexed": true,
          "internalType": "address"
        },
        {
          "name": "newOwner",
          "type": "address",
          "indexed": true,
          "internalType": "address"
        }
      ],
      "anonymous": false
    },
    {
      "type": "event",
      "name": "TransferBatch",
      "inputs": [
        {
          "name": "operator",
          "type": "address",
          "indexed": true,
          "internalType": "address"
        },
        {
          "name": "from",
          "type": "address",
          "indexed": true,
          "internalType": "address"
        },
        {
          "name": "to",
          "type": "address",
          "indexed": true,
          "internalType": "address"
        },
        {
          "name": "ids",
          "type": "uint256[]",
          "indexed": false,
          "internalType": "uint256[]"
        },
        {
          "name": "values",
          "type": "uint256[]",
          "indexed": false,
          "internalType": "uint256[]"
        }
      ],
      "anonymous": false
    },
    {
      "type": "event",
      "name": "TransferSingle",
      "inputs": [
        {
          "name": "operator",
          "type": "address",
          "indexed": true,
          "internalType": "address"
        },
        {
          "name": "from",
          "type": "address",
          "indexed": true,
          "internalType": "address"
        },
        {
          "name": "to",
          "type": "address",
          "indexed": true,
          "internalType": "address"
        },
        {
          "name": "id",
          "type": "uint256",
          "indexed": false,
          "internalType": "uint256"
        },
        {
          "name": "value",
          "type": "uint256",
          "indexed": false,
          "internalType": "uint256"
        }
      ],
      "anonymous": false
    },
    {
      "type": "event",
      "name": "URI",
      "inputs": [
        {
          "name": "value",
          "type": "string",
          "indexed": false,
          "internalType": "string"
        },
        {
          "name": "id",
          "type": "uint256",
          "indexed": true,
          "internalType": "uint256"
        }
      ],
      "anonymous": false
    }
  ],
  "bytecode": {
    "object": "0x60806040523480156200001157600080fd5b506040516200201b3803806200201b83398101604081905262000034916200019c565b80620000408162000073565b506200004c3362000085565b60046200005a8482620002bc565b506005620000698382620002bc565b5050505062000388565b6002620000818282620002bc565b5050565b600380546001600160a01b038381166001600160a01b0319831681179093556040519116919082907f8be0079c531659141344cd1fd0a4f28419497f9722a3daafe3b4186f6b6457e090600090a35050565b634e487b7160e01b600052604160045260246000fd5b600082601f830112620000ff57600080fd5b81516001600160401b03808211156200011c576200011c620000d7565b604051601f8301601f19908116603f01168101908282118183101715620001475762000147620000d7565b816040528381526020925086838588010111156200016457600080fd5b600091505b8382101562000188578582018301518183018401529082019062000169565b600093810190920192909252949350505050565b600080600060608486031215620001b257600080fd5b83516001600160401b0380821115620001ca57600080fd5b620001d887838801620000ed565b94506020860151915080821115620001ef57600080fd5b620001fd87838801620000ed565b935060408601519150808211156200021457600080fd5b506200022386828701620000ed565b9150509250925092565b600181811c908216806200024257607f821691505b6020821081036200026357634e487b7160e01b600052602260045260246000fd5b50919050565b601f821115620002b757600081815260208120601f850160051c81016020861015620002925750805b601f850160051c820191505b81811015620002b3578281556001016200029e565b5050505b505050565b81516001600160401b03811115620002d857620002d8620000d7565b620002f081620002e984546200022d565b8462000269565b602080601f8311600181146200032857600084156200030f5750858301515b600019600386901b1c1916600185901b178555620002b3565b600085815260208120601f198616915b82811015620003595788860151825594840194600190910190840162000338565b5085821015620003785787850151600019600388901b60f8161c191681555b5050505050600190811b01905550565b611c8380620003986000396000f3fe6080604052600436106101085760003560e01c8063715018a611610095578063c87b56dd11610064578063c87b56dd146102bc578063e985e9c5146102dc578063ed7aae2b14610325578063f242432a14610352578063f2fde38b1461037257600080fd5b8063715018a61461024a5780638da5cb5b1461025f57806395d89b4114610287578063a22cb4651461029c57600080fd5b8063156e29f6116100dc578063156e29f6146101b257806318160ddd146101c75780632eb2c2d6146101dd5780634e1273f4146101fd57806355f804b31461022a57600080fd5b8062fdd58e1461010d57806301ffc9a71461014057806306fdde03146101705780630e89341c14610192575b600080fd5b34801561011957600080fd5b5061012d61012836600461125c565b610392565b6040519081526020015b60405180910390f35b34801561014c57600080fd5b5061016061015b36600461129c565b61042b565b6040519015158152602001610137565b34801561017c57600080fd5b5061018561047b565b6040516101379190611310565b34801561019e57600080fd5b506101856101ad366004611323565b610509565b6101c56101c036600461133c565b61059d565b005b3480156101d357600080fd5b5061012d60065481565b3480156101e957600080fd5b506101c56101f83660046114c5565b61060b565b34801561020957600080fd5b5061021d61021836600461156f565b610657565b6040516101379190611675565b34801561023657600080fd5b506101c5610245366004611688565b610781565b34801561025657600080fd5b506101c5610795565b34801561026b57600080fd5b506003546040516001600160a01b039091168152602001610137565b34801561029357600080fd5b506101856107a9565b3480156102a857600080fd5b506101c56102b73660046116d9565b6107b6565b3480156102c857600080fd5b506101856102d7366004611323565b6107c5565b3480156102e857600080fd5b506101606102f7366004611715565b6001600160a01b03918216600090815260016020908152604080832093909416825291909152205460ff1690565b34801561033157600080fd5b5061012d610340366004611323565b60076020526000908152604090205481565b34801561035e57600080fd5b506101c561036d366004611748565b610806565b34801561037e57600080fd5b506101c561038d3660046117ad565b61084b565b60006001600160a01b0383166104025760405162461bcd60e51b815260206004820152602a60248201527f455243313135353a2061646472657373207a65726f206973206e6f742061207660448201526930b634b21037bbb732b960b11b60648201526084015b60405180910390fd5b506000818152602081815260408083206001600160a01b03861684529091529020545b92915050565b60006001600160e01b03198216636cdb3d1360e11b148061045c57506001600160e01b031982166303a24d0760e21b145b8061042557506301ffc9a760e01b6001600160e01b0319831614610425565b60048054610488906117c8565b80601f01602080910402602001604051908101604052809291908181526020018280546104b4906117c8565b80156105015780601f106104d657610100808354040283529160200191610501565b820191906000526020600020905b8154815290600101906020018083116104e457829003601f168201915b505050505081565b606060028054610518906117c8565b80601f0160208091040260200160405190810160405280929190818152602001828054610544906117c8565b80156105915780601f1061056657610100808354040283529160200191610591565b820191906000526020600020905b81548152906001019060200180831161057457829003601f168201915b50505050509050919050565b60008281526007602052604081205490036105c857600680549060006105c283611818565b91905055505b6105e3838383604051806020016040528060008152506108c1565b60008281526007602052604081208054839290610601908490611831565b9091555050505050565b6001600160a01b038516331480610627575061062785336102f7565b6106435760405162461bcd60e51b81526004016103f990611844565b61065085858585856109d5565b5050505050565b606081518351146106bc5760405162461bcd60e51b815260206004820152602960248201527f455243313135353a206163636f756e747320616e6420696473206c656e677468604482015268040dad2e6dac2e8c6d60bb1b60648201526084016103f9565b6000835167ffffffffffffffff8111156106d8576106d861136f565b604051908082528060200260200182016040528015610701578160200160208202803683370190505b50905060005b84518110156107795761074c85828151811061072557610725611892565b602002602001015185838151811061073f5761073f611892565b6020026020010151610392565b82828151811061075e5761075e611892565b602090810291909101015261077281611818565b9050610707565b509392505050565b610789610bb2565b61079281610c0c565b50565b61079d610bb2565b6107a76000610c18565b565b60058054610488906117c8565b6107c1338383610c6a565b5050565b606060006107d283610509565b9050806107de84610d4a565b6040516020016107ef9291906118a8565b604051602081830303815290604052915050919050565b6001600160a01b038516331480610822575061082285336102f7565b61083e5760405162461bcd60e51b81526004016103f990611844565b6106508585858585610ddd565b610853610bb2565b6001600160a01b0381166108b85760405162461bcd60e51b815260206004820152602660248201527f4f776e61626c653a206e6577206f776e657220697320746865207a65726f206160448201526564647265737360d01b60648201526084016103f9565b61079281610c18565b6001600160a01b0384166109215760405162461bcd60e51b815260206004820152602160248201527f455243313135353a206d696e7420746f20746865207a65726f206164647265736044820152607360f81b60648201526084016103f9565b33600061092d85610f07565b9050600061093a85610f07565b90506000868152602081815260408083206001600160a01b038b1684529091528120805487929061096c908490611831565b909155505060408051878152602081018790526001600160a01b03808a1692600092918716917fc3d58168c5ae7397731d063d5bbf3d657854427343f4c083240f7aacaa2d0f62910160405180910390a46109cc83600089898989610f52565b50505050505050565b8151835114610a375760405162461bcd60e51b815260206004820152602860248201527f455243313135353a2069647320616e6420616d6f756e7473206c656e677468206044820152670dad2e6dac2e8c6d60c31b60648201526084016103f9565b6001600160a01b038416610a5d5760405162461bcd60e51b81526004016103f9906118d7565b3360005b8451811015610b44576000858281518110610a7e57610a7e611892565b602002602001015190506000858381518110610a9c57610a9c611892565b602090810291909101810151600084815280835260408082206001600160a01b038e168352909352919091205490915081811015610aec5760405162461bcd60e51b81526004016103f99061191c565b6000838152602081815260408083206001600160a01b038e8116855292528083208585039055908b16825281208054849290610b29908490611831565b9250508190555050505080610b3d90611818565b9050610a61565b50846001600160a01b0316866001600160a01b0316826001600160a01b03167f4a39dc06d4c0dbc64b70af90fd698a233a518aa5d07e595d983b8c0526c8f7fb8787604051610b94929190611966565b60405180910390a4610baa8187878787876110ad565b505050505050565b6003546001600160a01b031633146107a75760405162461bcd60e51b815260206004820181905260248201527f4f776e61626c653a2063616c6c6572206973206e6f7420746865206f776e657260448201526064016103f9565b60026107c182826119df565b600380546001600160a01b038381166001600160a01b0319831681179093556040519116919082907f8be0079c531659141344cd1fd0a4f28419497f9722a3daafe3b4186f6b6457e090600090a35050565b816001600160a01b0316836001600160a01b031603610cdd5760405162461bcd60e51b815260206004820152602960248201527f455243313135353a2073657474696e6720617070726f76616c20737461747573604482015268103337b91039b2b63360b91b60648201526084016103f9565b6001600160a01b03838116600081815260016020908152604080832094871680845294825291829020805460ff191686151590811790915591519182527f17307eab39ab6107e8899845ad3d59bd9653f200f220920489ca2b5937696c31910160405180910390a3505050565b60606000610d5783611168565b600101905060008167ffffffffffffffff811115610d7757610d7761136f565b6040519080825280601f01601f191660200182016040528015610da1576020820181803683370190505b5090508181016020015b600019016f181899199a1a9b1b9c1cb0b131b232b360811b600a86061a8153600a8504945084610dab57509392505050565b6001600160a01b038416610e035760405162461bcd60e51b81526004016103f9906118d7565b336000610e0f85610f07565b90506000610e1c85610f07565b90506000868152602081815260408083206001600160a01b038c16845290915290205485811015610e5f5760405162461bcd60e51b81526004016103f99061191c565b6000878152602081815260408083206001600160a01b038d8116855292528083208985039055908a16825281208054889290610e9c908490611831565b909155505060408051888152602081018890526001600160a01b03808b16928c821692918816917fc3d58168c5ae7397731d063d5bbf3d657854427343f4c083240f7aacaa2d0f62910160405180910390a4610efc848a8a8a8a8a610f52565b505050505050505050565b60408051600180825281830190925260609160009190602080830190803683370190505090508281600081518110610f4157610f41611892565b602090810291909101015292915050565b6001600160a01b0384163b15610baa5760405163f23a6e6160e01b81526001600160a01b0385169063f23a6e6190610f969089908990889088908890600401611a9f565b6020604051808303816000875af1925050508015610fd1575060408051601f3d908101601f19168201909252610fce91810190611ae4565b60015b61107d57610fdd611b01565b806308c379a0036110165750610ff1611b1d565b80610ffc5750611018565b8060405162461bcd60e51b81526004016103f99190611310565b505b60405162461bcd60e51b815260206004820152603460248201527f455243313135353a207472616e7366657220746f206e6f6e2d455243313135356044820152732932b1b2b4bb32b91034b6b83632b6b2b73a32b960611b60648201526084016103f9565b6001600160e01b0319811663f23a6e6160e01b146109cc5760405162461bcd60e51b81526004016103f990611ba7565b6001600160a01b0384163b15610baa5760405163bc197c8160e01b81526001600160a01b0385169063bc197c81906110f19089908990889088908890600401611bef565b6020604051808303816000875af192505050801561112c575060408051601f3d908101601f1916820190925261112991810190611ae4565b60015b61113857610fdd611b01565b6001600160e01b0319811663bc197c8160e01b146109cc5760405162461bcd60e51b81526004016103f990611ba7565b60008072184f03e93ff9f4daa797ed6e38ed64bf6a1f0160401b83106111a75772184f03e93ff9f4daa797ed6e38ed64bf6a1f0160401b830492506040015b6d04ee2d6d415b85acef810000000083106111d3576d04ee2d6d415b85acef8100000000830492506020015b662386f26fc1000083106111f157662386f26fc10000830492506010015b6305f5e1008310611209576305f5e100830492506008015b612710831061121d57612710830492506004015b6064831061122f576064830492506002015b600a83106104255760010192915050565b80356001600160a01b038116811461125757600080fd5b919050565b6000806040838503121561126f57600080fd5b61127883611240565b946020939093013593505050565b6001600160e01b03198116811461079257600080fd5b6000602082840312156112ae57600080fd5b81356112b981611286565b9392505050565b60005b838110156112db5781810151838201526020016112c3565b50506000910152565b600081518084526112fc8160208601602086016112c0565b601f01601f19169290920160200192915050565b6020815260006112b960208301846112e4565b60006020828403121561133557600080fd5b5035919050565b60008060006060848603121561135157600080fd5b61135a84611240565b95602085013595506040909401359392505050565b634e487b7160e01b600052604160045260246000fd5b601f8201601f1916810167ffffffffffffffff811182821017156113ab576113ab61136f565b6040525050565b600067ffffffffffffffff8211156113cc576113cc61136f565b5060051b60200190565b600082601f8301126113e757600080fd5b813560206113f4826113b2565b6040516114018282611385565b83815260059390931b850182019282810191508684111561142157600080fd5b8286015b8481101561143c5780358352918301918301611425565b509695505050505050565b600067ffffffffffffffff8311156114615761146161136f565b604051611478601f8501601f191660200182611385565b80915083815284848401111561148d57600080fd5b83836020830137600060208583010152509392505050565b600082601f8301126114b657600080fd5b6112b983833560208501611447565b600080600080600060a086880312156114dd57600080fd5b6114e686611240565b94506114f460208701611240565b9350604086013567ffffffffffffffff8082111561151157600080fd5b61151d89838a016113d6565b9450606088013591508082111561153357600080fd5b61153f89838a016113d6565b9350608088013591508082111561155557600080fd5b50611562888289016114a5565b9150509295509295909350565b6000806040838503121561158257600080fd5b823567ffffffffffffffff8082111561159a57600080fd5b818501915085601f8301126115ae57600080fd5b813560206115bb826113b2565b6040516115c88282611385565b83815260059390931b85018201928281019150898411156115e857600080fd5b948201945b8386101561160d576115fe86611240565b825294820194908201906115ed565b9650508601359250508082111561162357600080fd5b50611630858286016113d6565b9150509250929050565b600081518084526020808501945080840160005b8381101561166a5781518752958201959082019060010161164e565b509495945050505050565b6020815260006112b9602083018461163a565b60006020828403121561169a57600080fd5b813567ffffffffffffffff8111156116b157600080fd5b8201601f810184136116c257600080fd5b6116d184823560208401611447565b949350505050565b600080604083850312156116ec57600080fd5b6116f583611240565b91506020830135801515811461170a57600080fd5b809150509250929050565b6000806040838503121561172857600080fd5b61173183611240565b915061173f60208401611240565b90509250929050565b600080600080600060a0868803121561176057600080fd5b61176986611240565b945061177760208701611240565b93506040860135925060608601359150608086013567ffffffffffffffff8111156117a157600080fd5b611562888289016114a5565b6000602082840312156117bf57600080fd5b6112b982611240565b600181811c908216806117dc57607f821691505b6020821081036117fc57634e487b7160e01b600052602260045260246000fd5b50919050565b634e487b7160e01b600052601160045260246000fd5b60006001820161182a5761182a611802565b5060010190565b8082018082111561042557610425611802565b6020808252602e908201527f455243313135353a2063616c6c6572206973206e6f7420746f6b656e206f776e60408201526d195c881bdc88185c1c1c9bdd995960921b606082015260800190565b634e487b7160e01b600052603260045260246000fd5b600083516118ba8184602088016112c0565b8351908301906118ce8183602088016112c0565b01949350505050565b60208082526025908201527f455243313135353a207472616e7366657220746f20746865207a65726f206164604082015264647265737360d81b606082015260800190565b6020808252602a908201527f455243313135353a20696e73756666696369656e742062616c616e636520666f60408201526939103a3930b739b332b960b11b606082015260800190565b604081526000611979604083018561163a565b828103602084015261198b818561163a565b95945050505050565b601f8211156119da57600081815260208120601f850160051c810160208610156119bb5750805b601f850160051c820191505b81811015610baa578281556001016119c7565b505050565b815167ffffffffffffffff8111156119f9576119f961136f565b611a0d81611a0784546117c8565b84611994565b602080601f831160018114611a425760008415611a2a5750858301515b600019600386901b1c1916600185901b178555610baa565b600085815260208120601f198616915b82811015611a7157888601518255948401946001909101908401611a52565b5085821015611a8f5787850151600019600388901b60f8161c191681555b5050505050600190811b01905550565b6001600160a01b03868116825285166020820152604081018490526060810183905260a060808201819052600090611ad9908301846112e4565b979650505050505050565b600060208284031215611af657600080fd5b81516112b981611286565b600060033d1115611b1a5760046000803e5060005160e01c5b90565b600060443d1015611b2b5790565b6040516003193d81016004833e81513d67ffffffffffffffff8160248401118184111715611b5b57505050505090565b8285019150815181811115611b735750505050505090565b843d8701016020828501011115611b8d5750505050505090565b611b9c60208286010187611385565b509095945050505050565b60208082526028908201527f455243313135353a204552433131353552656365697665722072656a656374656040820152676420746f6b656e7360c01b606082015260800190565b6001600160a01b0386811682528516602082015260a060408201819052600090611c1b9083018661163a565b8281036060840152611c2d818661163a565b90508281036080840152611c4181856112e4565b9897505050505050505056fea26469706673582212209d1839f8c7a34e98935e614659d69d67c010451583d0117ddec924a9628639f064736f6c63430008120033",
    "linkReferences": {}
  },
  "methodIdentifiers": {
    "balanceOf(address,uint256)": "00fdd58e",
    "balanceOfBatch(address[],uint256[])": "4e1273f4",
    "isApprovedForAll(address,address)": "e985e9c5",
    "mint(address,uint256,uint256)": "156e29f6",
    "name()": "06fdde03",
    "owner()": "8da5cb5b",
    "renounceOwnership()": "715018a6",
    "safeBatchTransferFrom(address,address,uint256[],uint256[],bytes)": "2eb2c2d6",
    "safeTransferFrom(address,address,uint256,uint256,bytes)": "f242432a",
    "setApprovalForAll(address,bool)": "a22cb465",
    "setBaseURI(string)": "55f804b3",
    "supportsInterface(bytes4)": "01ffc9a7",
    "symbol()": "95d89b41",
    "tokenURI(uint256)": "c87b56dd",
    "totalBalances(uint256)": "ed7aae2b",
    "totalSupply()": "18160ddd",
    "transferOwnership(address)": "f2fde38b",
    "uri(uint256)": "0e89341c"
  },
  "id": 63
}