{
  "abi": [
    {
      "inputs": [],
      "stateMutability": "nonpayable",
      "type": "constructor"
    },
    {
      "inputs": [],
      "name": "UnsupportedCollection",
      "type": "error"
    },
    {
      "inputs": [],
      "name": "ZeroAddressDetected",
      "type": "error"
    },
    {
      "anonymous": false,
      "inputs": [
        {
          "indexed": true,
          "internalType": "address",
          "name": "nft",
          "type": "address"
        },
        {
          "indexed": true,
          "internalType": "uint256",
          "name": "tokenId",
          "type": "uint256"
        },
        {
          "indexed": true,
          "internalType": "address",
          "name": "recipient",
          "type": "address"
        }
      ],
      "name": "Claim",
      "type": "event"
    },
    {
      "anonymous": false,
      "inputs": [
        {
          "indexed": true,
          "internalType": "string",
          "name": "name",
          "type": "string"
        },
        {
          "indexed": true,
          "internalType": "address",
          "name": "addr",
          "type": "address"
        }
      ],
      "name": "CollectionAdded",
      "type": "event"
    },
    {
      "anonymous": false,
      "inputs": [
        {
          "indexed": true,
          "internalType": "string",
          "name": "name",
          "type": "string"
        },
        {
          "indexed": true,
          "internalType": "address",
          "name": "addr",
          "type": "address"
        }
      ],
      "name": "CollectionAmended",
      "type": "event"
    },
    {
      "anonymous": false,
      "inputs": [
        {
          "indexed": true,
          "internalType": "string",
          "name": "name",
          "type": "string"
        },
        {
          "indexed": true,
          "internalType": "address",
          "name": "addr",
          "type": "address"
        }
      ],
      "name": "CollectionRemoved",
      "type": "event"
    },
    {
      "anonymous": false,
      "inputs": [
        {
          "indexed": false,
          "internalType": "uint8",
          "name": "version",
          "type": "uint8"
        }
      ],
      "name": "Initialized",
      "type": "event"
    },
    {
      "anonymous": false,
      "inputs": [
        {
          "indexed": true,
          "internalType": "bytes32",
          "name": "role",
          "type": "bytes32"
        },
        {
          "indexed": true,
          "internalType": "bytes32",
          "name": "previousAdminRole",
          "type": "bytes32"
        },
        {
          "indexed": true,
          "internalType": "bytes32",
          "name": "newAdminRole",
          "type": "bytes32"
        }
      ],
      "name": "RoleAdminChanged",
      "type": "event"
    },
    {
      "anonymous": false,
      "inputs": [
        {
          "indexed": true,
          "internalType": "bytes32",
          "name": "role",
          "type": "bytes32"
        },
        {
          "indexed": true,
          "internalType": "address",
          "name": "account",
          "type": "address"
        },
        {
          "indexed": true,
          "internalType": "address",
          "name": "sender",
          "type": "address"
        }
      ],
      "name": "RoleGranted",
      "type": "event"
    },
    {
      "anonymous": false,
      "inputs": [
        {
          "indexed": true,
          "internalType": "bytes32",
          "name": "role",
          "type": "bytes32"
        },
        {
          "indexed": true,
          "internalType": "address",
          "name": "account",
          "type": "address"
        },
        {
          "indexed": true,
          "internalType": "address",
          "name": "sender",
          "type": "address"
        }
      ],
      "name": "RoleRevoked",
      "type": "event"
    },
    {
      "inputs": [],
      "name": "DEFAULT_ADMIN_ROLE",
      "outputs": [
        {
          "internalType": "bytes32",
          "name": "",
          "type": "bytes32"
        }
      ],
      "stateMutability": "view",
      "type": "function"
    },
    {
      "inputs": [
        {
          "internalType": "address",
          "name": "nft",
          "type": "address"
        },
        {
          "internalType": "uint256",
          "name": "tokenId",
          "type": "uint256"
        },
        {
          "internalType": "address",
          "name": "recipient",
          "type": "address"
        }
      ],
      "name": "claim",
      "outputs": [],
      "stateMutability": "nonpayable",
      "type": "function"
    },
    {
      "inputs": [],
      "name": "claimRole",
      "outputs": [
        {
          "internalType": "bytes32",
          "name": "",
          "type": "bytes32"
        }
      ],
      "stateMutability": "view",
      "type": "function"
    },
    {
      "inputs": [
        {
          "internalType": "string",
          "name": "name",
          "type": "string"
        }
      ],
      "name": "getCollectionAddress",
      "outputs": [
        {
          "internalType": "address",
          "name": "",
          "type": "address"
        }
      ],
      "stateMutability": "view",
      "type": "function"
    },
    {
      "inputs": [
        {
          "internalType": "bytes32",
          "name": "role",
          "type": "bytes32"
        }
      ],
      "name": "getRoleAdmin",
      "outputs": [
        {
          "internalType": "bytes32",
          "name": "",
          "type": "bytes32"
        }
      ],
      "stateMutability": "view",
      "type": "function"
    },
    {
      "inputs": [
        {
          "internalType": "bytes32",
          "name": "role",
          "type": "bytes32"
        },
        {
          "internalType": "address",
          "name": "account",
          "type": "address"
        }
      ],
      "name": "grantRole",
      "outputs": [],
      "stateMutability": "nonpayable",
      "type": "function"
    },
    {
      "inputs": [
        {
          "internalType": "bytes32",
          "name": "role",
          "type": "bytes32"
        },
        {
          "internalType": "address",
          "name": "account",
          "type": "address"
        }
      ],
      "name": "hasRole",
      "outputs": [
        {
          "internalType": "bool",
          "name": "",
          "type": "bool"
        }
      ],
      "stateMutability": "view",
      "type": "function"
    },
    {
      "inputs": [
        {
          "internalType": "address",
          "name": "admin",
          "type": "address"
        }
      ],
      "name": "initialize",
      "outputs": [],
      "stateMutability": "nonpayable",
      "type": "function"
    },
    {
      "inputs": [
        {
          "internalType": "address",
          "name": "nft",
          "type": "address"
        }
      ],
      "name": "isSupported",
      "outputs": [
        {
          "internalType": "bool",
          "name": "",
          "type": "bool"
        }
      ],
      "stateMutability": "view",
      "type": "function"
    },
    {
      "inputs": [
        {
          "internalType": "string",
          "name": "name",
          "type": "string"
        },
        {
          "internalType": "address",
          "name": "nft",
          "type": "address"
        },
        {
          "internalType": "bool",
          "name": "supported",
          "type": "bool"
        }
      ],
      "name": "manageCollection",
      "outputs": [],
      "stateMutability": "nonpayable",
      "type": "function"
    },
    {
      "inputs": [
        {
          "internalType": "address",
          "name": "",
          "type": "address"
        },
        {
          "internalType": "address",
          "name": "",
          "type": "address"
        },
        {
          "internalType": "uint256",
          "name": "",
          "type": "uint256"
        },
        {
          "internalType": "bytes",
          "name": "",
          "type": "bytes"
        }
      ],
      "name": "onERC721Received",
      "outputs": [
        {
          "internalType": "bytes4",
          "name": "",
          "type": "bytes4"
        }
      ],
      "stateMutability": "view",
      "type": "function"
    },
    {
      "inputs": [
        {
          "internalType": "bytes32",
          "name": "role",
          "type": "bytes32"
        },
        {
          "internalType": "address",
          "name": "account",
          "type": "address"
        }
      ],
      "name": "renounceRole",
      "outputs": [],
      "stateMutability": "nonpayable",
      "type": "function"
    },
    {
      "inputs": [
        {
          "internalType": "bytes32",
          "name": "role",
          "type": "bytes32"
        },
        {
          "internalType": "address",
          "name": "account",
          "type": "address"
        }
      ],
      "name": "revokeRole",
      "outputs": [],
      "stateMutability": "nonpayable",
      "type": "function"
    },
    {
      "inputs": [
        {
          "internalType": "bytes4",
          "name": "interfaceId",
          "type": "bytes4"
        }
      ],
      "name": "supportsInterface",
      "outputs": [
        {
          "internalType": "bool",
          "name": "",
          "type": "bool"
        }
      ],
      "stateMutability": "view",
      "type": "function"
    },
    {
      "inputs": [],
      "name": "totalCollection",
      "outputs": [
        {
          "internalType": "uint256",
          "name": "",
          "type": "uint256"
        }
      ],
      "stateMutability": "view",
      "type": "function"
    },
    {
      "inputs": [],
      "name": "version",
      "outputs": [
        {
          "internalType": "uint8",
          "name": "",
          "type": "uint8"
        }
      ],
      "stateMutability": "view",
      "type": "function"
    }
  ],
  "bytecode": {
    "object": "0x608060405234801561001057600080fd5b5061001961001e565b6100dd565b600054610100900460ff161561008a5760405162461bcd60e51b815260206004820152602760248201527f496e697469616c697a61626c653a20636f6e747261637420697320696e697469604482015266616c697a696e6760c81b606482015260840160405180910390fd5b60005460ff908116146100db576000805460ff191660ff9081179091556040519081527f7f26b83ff96e1f2b6a682f133852f6798a09c465da95921460cefb38474024989060200160405180910390a15b565b611177806100ec6000396000f3fe608060405234801561001057600080fd5b50600436106101005760003560e01c80636ea5cf9c11610097578063a217fddf11610066578063a217fddf1461026c578063c4d66de814610274578063d547741f14610287578063f2d1597c1461029a57600080fd5b80636ea5cf9c1461020857806391d148541461021b5780639e96a2601461022e578063a11ad0401461024157600080fd5b806336568abe116100d357806336568abe1461019f57806342b42240146101b25780634f129c53146101ba57806354fd4d50146101f357600080fd5b806301ffc9a714610105578063150b7a021461012d578063248a9ca3146101595780632f2ff15d1461018a575b600080fd5b610118610113366004610d41565b6102a2565b60405190151581526020015b60405180910390f35b61014061013b366004610dd0565b6102d9565b6040516001600160e01b03199091168152602001610124565b61017c610167366004610e3f565b60009081526065602052604090206001015490565b604051908152602001610124565b61019d610198366004610e58565b610328565b005b61019d6101ad366004610e58565b610352565b61017c6103d5565b6101186101c8366004610e84565b6001600160a01b03166000908152600080516020611102833981519152602052604090205460ff1690565b60005460405160ff9091168152602001610124565b61019d610216366004610e9f565b6103ff565b610118610229366004610e58565b610482565b61019d61023c366004610f0b565b6104ad565b61025461024f366004610f47565b6105b7565b6040516001600160a01b039091168152602001610124565b61017c600081565b61019d610282366004610e84565b6105f9565b61019d610295366004610e58565b610750565b61017c610775565b60006001600160e01b03198216637965db0b60e01b14806102d357506301ffc9a760e01b6001600160e01b03198316145b92915050565b336000908152600080516020611102833981519152602052604081205460ff1661031657604051630179a91760e01b815260040160405180910390fd5b50630a85bd0160e11b95945050505050565b6000828152606560205260409020600101546103438161079d565b61034d83836107aa565b505050565b6001600160a01b03811633146103c75760405162461bcd60e51b815260206004820152602f60248201527f416363657373436f6e74726f6c3a2063616e206f6e6c792072656e6f756e636560448201526e103937b632b9903337b91039b2b63360891b60648201526084015b60405180910390fd5b6103d18282610830565b5050565b60007f9b9d9b2d5e3d3f628946658685575dea0ea2e783508206834623a2b8247a44f05b54919050565b600061040a8161079d565b6001600160a01b03831661043157604051632887dd7560e11b815260040160405180910390fd5b6001600160a01b0383166000908152600080516020611102833981519152602052604090205460ff16156104705761046b85858585610897565b61047b565b61047b858585610a22565b5050505050565b60009182526065602090815260408084206001600160a01b0393909316845291905290205460ff1690565b6104b5610775565b6104be8161079d565b6001600160a01b0384166000908152600080516020611102833981519152602052604090205460ff1661050457604051630179a91760e01b815260040160405180910390fd5b604051632142170760e11b81523060048201526001600160a01b038381166024830152604482018590528591908216906342842e0e90606401600060405180830381600087803b15801561055757600080fd5b505af115801561056b573d6000803e3d6000fd5b50505050826001600160a01b031684866001600160a01b03167fa8363d922dc171313585ca13972873c5732013dc819db64b51ba8b1aa1a1e3e260405160405180910390a45050505050565b60006000805160206111228339815191526040516105d89085908590610f89565b908152604051908190036020019020546001600160a01b0316905092915050565b600054610100900460ff16158080156106195750600054600160ff909116105b806106335750303b158015610633575060005460ff166001145b6106965760405162461bcd60e51b815260206004820152602e60248201527f496e697469616c697a61626c653a20636f6e747261637420697320616c72656160448201526d191e481a5b9a5d1a585b1a5e995960921b60648201526084016103be565b6000805460ff1916600117905580156106b9576000805461ff0019166101001790555b6106c46000836107aa565b7ff7db13299c8a9e501861f04c20f69a2444829a36a363cfad4b58864709c755607f912c7b37cd4cbc410efff7b0dd160abb3e922341e761b33c41d5f70b47d866625580156103d1576000805461ff0019169055604051600181527f7f26b83ff96e1f2b6a682f133852f6798a09c465da95921460cefb38474024989060200160405180910390a15050565b60008281526065602052604090206001015461076b8161079d565b61034d8383610830565b60007f912c7b37cd4cbc410efff7b0dd160abb3e922341e761b33c41d5f70b47d866626103f9565b6107a78133610b33565b50565b6107b48282610482565b6103d15760008281526065602090815260408083206001600160a01b03851684529091529020805460ff191660011790556107ec3390565b6001600160a01b0316816001600160a01b0316837f2f8788117e7eff1d82e926ec794901d17c78024a50270940304540a733656f0d60405160405180910390a45050565b61083a8282610482565b156103d15760008281526065602090815260408083206001600160a01b0385168085529252808320805460ff1916905551339285917ff6391f5c32d9c69d2a47ea670b442974b53935d1edc7fd64eb21e047a839171b9190a45050565b8061098f576000805160206111228339815191526040516108bb9086908690610f89565b90815260405190819003602001902080546001600160a01b03191690556108ed60008051602061110283398151915290565b6001600160a01b038316600090815260209190915260408120805460ff191690557f9b9d9b2d5e3d3f628946658685575dea0ea2e783508206834623a2b8247a44f080549161093b83610faf565b9190505550816001600160a01b0316848460405161095a929190610f89565b604051908190038120907f484fcd5ed262eac81c298ba5da5a980caa339db94a1eb558ee03e498bc15143690600090a3610a1c565b816000805160206111228339815191526040516109af9087908790610f89565b90815260405190819003602001812080546001600160a01b039384166001600160a01b0319909116179055908316906109eb9086908690610f89565b604051908190038120907fa38d4abed5b259070422c1fce2d95776985afcba5a3af4037dceededc35f0cd290600090a35b50505050565b80600080516020611122833981519152604051610a429086908690610f89565b90815260405190819003602001902080546001600160a01b03929092166001600160a01b03199092169190911790556001610a8860008051602061110283398151915290565b6001600160a01b038316600090815260209190915260409020805460ff19169115159190911790557f9b9d9b2d5e3d3f628946658685575dea0ea2e783508206834623a2b8247a44f08054906000610adf83610fc6565b9190505550806001600160a01b03168383604051610afe929190610f89565b604051908190038120907fbe1efb11a96074d4f178e267040127058b57ff1cf2e208d005dcac604375bf7790600090a3505050565b610b3d8282610482565b6103d157610b4a81610b8c565b610b55836020610b9e565b604051602001610b66929190611003565b60408051601f198184030181529082905262461bcd60e51b82526103be91600401611078565b60606102d36001600160a01b03831660145b60606000610bad8360026110ab565b610bb89060026110c2565b67ffffffffffffffff811115610bd057610bd06110d5565b6040519080825280601f01601f191660200182016040528015610bfa576020820181803683370190505b509050600360fc1b81600081518110610c1557610c156110eb565b60200101906001600160f81b031916908160001a905350600f60fb1b81600181518110610c4457610c446110eb565b60200101906001600160f81b031916908160001a9053506000610c688460026110ab565b610c739060016110c2565b90505b6001811115610ceb576f181899199a1a9b1b9c1cb0b131b232b360811b85600f1660108110610ca757610ca76110eb565b1a60f81b828281518110610cbd57610cbd6110eb565b60200101906001600160f81b031916908160001a90535060049490941c93610ce481610faf565b9050610c76565b508315610d3a5760405162461bcd60e51b815260206004820181905260248201527f537472696e67733a20686578206c656e67746820696e73756666696369656e7460448201526064016103be565b9392505050565b600060208284031215610d5357600080fd5b81356001600160e01b031981168114610d3a57600080fd5b80356001600160a01b0381168114610d8257600080fd5b919050565b60008083601f840112610d9957600080fd5b50813567ffffffffffffffff811115610db157600080fd5b602083019150836020828501011115610dc957600080fd5b9250929050565b600080600080600060808688031215610de857600080fd5b610df186610d6b565b9450610dff60208701610d6b565b935060408601359250606086013567ffffffffffffffff811115610e2257600080fd5b610e2e88828901610d87565b969995985093965092949392505050565b600060208284031215610e5157600080fd5b5035919050565b60008060408385031215610e6b57600080fd5b82359150610e7b60208401610d6b565b90509250929050565b600060208284031215610e9657600080fd5b610d3a82610d6b565b60008060008060608587031215610eb557600080fd5b843567ffffffffffffffff811115610ecc57600080fd5b610ed887828801610d87565b9095509350610eeb905060208601610d6b565b915060408501358015158114610f0057600080fd5b939692955090935050565b600080600060608486031215610f2057600080fd5b610f2984610d6b565b925060208401359150610f3e60408501610d6b565b90509250925092565b60008060208385031215610f5a57600080fd5b823567ffffffffffffffff811115610f7157600080fd5b610f7d85828601610d87565b90969095509350505050565b8183823760009101908152919050565b634e487b7160e01b600052601160045260246000fd5b600081610fbe57610fbe610f99565b506000190190565b600060018201610fd857610fd8610f99565b5060010190565b60005b83811015610ffa578181015183820152602001610fe2565b50506000910152565b7f416363657373436f6e74726f6c3a206163636f756e742000000000000000000081526000835161103b816017850160208801610fdf565b7001034b99036b4b9b9b4b733903937b6329607d1b601791840191820152835161106c816028840160208801610fdf565b01602801949350505050565b6020815260008251806020840152611097816040850160208701610fdf565b601f01601f19169190910160400192915050565b80820281158282048414176102d3576102d3610f99565b808201808211156102d3576102d3610f99565b634e487b7160e01b600052604160045260246000fd5b634e487b7160e01b600052603260045260246000fdfe747e8886b87b62f0eade79fdec6b3c3337a6c6564d7c5bb207756ea0c05622b953d364a7ce2f85822644d4764a29e2135171f41c9d4f128577f0ff4f34065d6fa264697066735822122080122dacd339401c3e951aa43c83b4179d6a19e0be351a5851746bdc881ad65e64736f6c63430008120033",
    "linkReferences": {}
  },
  "methodIdentifiers": {
    "DEFAULT_ADMIN_ROLE()": "a217fddf",
    "claim(address,uint256,address)": "9e96a260",
    "claimRole()": "f2d1597c",
    "getCollectionAddress(string)": "a11ad040",
    "getRoleAdmin(bytes32)": "248a9ca3",
    "grantRole(bytes32,address)": "2f2ff15d",
    "hasRole(bytes32,address)": "91d14854",
    "initialize(address)": "c4d66de8",
    "isSupported(address)": "4f129c53",
    "manageCollection(string,address,bool)": "6ea5cf9c",
    "onERC721Received(address,address,uint256,bytes)": "150b7a02",
    "renounceRole(bytes32,address)": "36568abe",
    "revokeRole(bytes32,address)": "d547741f",
    "supportsInterface(bytes4)": "01ffc9a7",
    "totalCollection()": "42b42240",
    "version()": "54fd4d50"
  },
  "id": 68
}