{
  "abi": [
    {
      "type": "constructor",
      "inputs": [],
      "stateMutability": "nonpayable"
    },
    {
      "type": "function",
      "name": "DEFAULT_ADMIN_ROLE",
      "inputs": [],
      "outputs": [
        {
          "name": "",
          "type": "bytes32",
          "internalType": "bytes32"
        }
      ],
      "stateMutability": "view"
    },
    {
      "type": "function",
      "name": "claim",
      "inputs": [
        {
          "name": "client",
          "type": "string",
          "internalType": "string"
        },
        {
          "name": "collection",
          "type": "string",
          "internalType": "string"
        },
        {
          "name": "tokenId",
          "type": "uint256",
          "internalType": "uint256"
        },
        {
          "name": "amount",
          "type": "uint256",
          "internalType": "uint256"
        },
        {
          "name": "recipient",
          "type": "address",
          "internalType": "address"
        }
      ],
      "outputs": [],
      "stateMutability": "nonpayable"
    },
    {
      "type": "function",
      "name": "claim",
      "inputs": [
        {
          "name": "client",
          "type": "string",
          "internalType": "string"
        },
        {
          "name": "amount",
          "type": "uint256",
          "internalType": "uint256"
        },
        {
          "name": "recipient",
          "type": "address",
          "internalType": "address"
        }
      ],
      "outputs": [],
      "stateMutability": "nonpayable"
    },
    {
      "type": "function",
      "name": "claim",
      "inputs": [
        {
          "name": "client",
          "type": "string",
          "internalType": "string"
        },
        {
          "name": "collection",
          "type": "string",
          "internalType": "string"
        },
        {
          "name": "asset",
          "type": "uint256",
          "internalType": "uint256"
        },
        {
          "name": "recipient",
          "type": "address",
          "internalType": "address"
        }
      ],
      "outputs": [],
      "stateMutability": "nonpayable"
    },
    {
      "type": "function",
      "name": "claimRole",
      "inputs": [],
      "outputs": [
        {
          "name": "",
          "type": "bytes32",
          "internalType": "bytes32"
        }
      ],
      "stateMutability": "view"
    },
    {
      "type": "function",
      "name": "computeClientVaultAddress",
      "inputs": [
        {
          "name": "name",
          "type": "string",
          "internalType": "string"
        },
        {
          "name": "bytecode",
          "type": "bytes",
          "internalType": "bytes"
        }
      ],
      "outputs": [
        {
          "name": "",
          "type": "address",
          "internalType": "address"
        }
      ],
      "stateMutability": "view"
    },
    {
      "type": "function",
      "name": "deployClientVault",
      "inputs": [
        {
          "name": "name",
          "type": "string",
          "internalType": "string"
        },
        {
          "name": "bytecode",
          "type": "bytes",
          "internalType": "bytes"
        }
      ],
      "outputs": [
        {
          "name": "",
          "type": "address",
          "internalType": "address"
        }
      ],
      "stateMutability": "payable"
    },
    {
      "type": "function",
      "name": "getClientVaultAddress",
      "inputs": [
        {
          "name": "name",
          "type": "string",
          "internalType": "string"
        }
      ],
      "outputs": [
        {
          "name": "",
          "type": "address",
          "internalType": "address"
        }
      ],
      "stateMutability": "view"
    },
    {
      "type": "function",
      "name": "getCollection",
      "inputs": [
        {
          "name": "name",
          "type": "string",
          "internalType": "string"
        }
      ],
      "outputs": [
        {
          "name": "",
          "type": "tuple",
          "internalType": "struct UMintStorageSlot.Collection",
          "components": [
            {
              "name": "token",
              "type": "uint8",
              "internalType": "enum UMintStorageSlot.Token"
            },
            {
              "name": "addr",
              "type": "address",
              "internalType": "address"
            }
          ]
        }
      ],
      "stateMutability": "view"
    },
    {
      "type": "function",
      "name": "getRoleAdmin",
      "inputs": [
        {
          "name": "role",
          "type": "bytes32",
          "internalType": "bytes32"
        }
      ],
      "outputs": [
        {
          "name": "",
          "type": "bytes32",
          "internalType": "bytes32"
        }
      ],
      "stateMutability": "view"
    },
    {
      "type": "function",
      "name": "grantRole",
      "inputs": [
        {
          "name": "role",
          "type": "bytes32",
          "internalType": "bytes32"
        },
        {
          "name": "account",
          "type": "address",
          "internalType": "address"
        }
      ],
      "outputs": [],
      "stateMutability": "nonpayable"
    },
    {
      "type": "function",
      "name": "hasRole",
      "inputs": [
        {
          "name": "role",
          "type": "bytes32",
          "internalType": "bytes32"
        },
        {
          "name": "account",
          "type": "address",
          "internalType": "address"
        }
      ],
      "outputs": [
        {
          "name": "",
          "type": "bool",
          "internalType": "bool"
        }
      ],
      "stateMutability": "view"
    },
    {
      "type": "function",
      "name": "initialize",
      "inputs": [
        {
          "name": "admin",
          "type": "address",
          "internalType": "address"
        }
      ],
      "outputs": [],
      "stateMutability": "nonpayable"
    },
    {
      "type": "function",
      "name": "isSupported",
      "inputs": [
        {
          "name": "nft",
          "type": "address",
          "internalType": "address"
        }
      ],
      "outputs": [
        {
          "name": "",
          "type": "bool",
          "internalType": "bool"
        }
      ],
      "stateMutability": "view"
    },
    {
      "type": "function",
      "name": "manageCollection",
      "inputs": [
        {
          "name": "name",
          "type": "string",
          "internalType": "string"
        },
        {
          "name": "token",
          "type": "uint8",
          "internalType": "enum UMintStorageSlot.Token"
        },
        {
          "name": "asset",
          "type": "address",
          "internalType": "address"
        },
        {
          "name": "supported",
          "type": "bool",
          "internalType": "bool"
        }
      ],
      "outputs": [],
      "stateMutability": "nonpayable"
    },
    {
      "type": "function",
      "name": "renounceRole",
      "inputs": [
        {
          "name": "role",
          "type": "bytes32",
          "internalType": "bytes32"
        },
        {
          "name": "account",
          "type": "address",
          "internalType": "address"
        }
      ],
      "outputs": [],
      "stateMutability": "nonpayable"
    },
    {
      "type": "function",
      "name": "revokeRole",
      "inputs": [
        {
          "name": "role",
          "type": "bytes32",
          "internalType": "bytes32"
        },
        {
          "name": "account",
          "type": "address",
          "internalType": "address"
        }
      ],
      "outputs": [],
      "stateMutability": "nonpayable"
    },
    {
      "type": "function",
      "name": "supportsInterface",
      "inputs": [
        {
          "name": "interfaceId",
          "type": "bytes4",
          "internalType": "bytes4"
        }
      ],
      "outputs": [
        {
          "name": "",
          "type": "bool",
          "internalType": "bool"
        }
      ],
      "stateMutability": "view"
    },
    {
      "type": "function",
      "name": "totalClientVaults",
      "inputs": [],
      "outputs": [
        {
          "name": "",
          "type": "uint256",
          "internalType": "uint256"
        }
      ],
      "stateMutability": "view"
    },
    {
      "type": "function",
      "name": "totalCollection",
      "inputs": [],
      "outputs": [
        {
          "name": "",
          "type": "tuple",
          "internalType": "struct UMintStorageSlot.TotalCollection",
          "components": [
            {
              "name": "total",
              "type": "uint64",
              "internalType": "uint64"
            },
            {
              "name": "erc20",
              "type": "uint64",
              "internalType": "uint64"
            },
            {
              "name": "erc721",
              "type": "uint64",
              "internalType": "uint64"
            },
            {
              "name": "erc1155",
              "type": "uint64",
              "internalType": "uint64"
            }
          ]
        }
      ],
      "stateMutability": "view"
    },
    {
      "type": "function",
      "name": "version",
      "inputs": [],
      "outputs": [
        {
          "name": "",
          "type": "uint8",
          "internalType": "uint8"
        }
      ],
      "stateMutability": "view"
    },
    {
      "type": "event",
      "name": "Claim",
      "inputs": [
        {
          "name": "vault",
          "type": "address",
          "indexed": true,
          "internalType": "address"
        },
        {
          "name": "amount",
          "type": "uint256",
          "indexed": false,
          "internalType": "uint256"
        },
        {
          "name": "recipient",
          "type": "address",
          "indexed": true,
          "internalType": "address"
        }
      ],
      "anonymous": false
    },
    {
      "type": "event",
      "name": "ClaimERC1155",
      "inputs": [
        {
          "name": "vault",
          "type": "address",
          "indexed": true,
          "internalType": "address"
        },
        {
          "name": "collection",
          "type": "address",
          "indexed": true,
          "internalType": "address"
        },
        {
          "name": "tokenId",
          "type": "uint256",
          "indexed": false,
          "internalType": "uint256"
        },
        {
          "name": "amount",
          "type": "uint256",
          "indexed": false,
          "internalType": "uint256"
        },
        {
          "name": "recipient",
          "type": "address",
          "indexed": true,
          "internalType": "address"
        }
      ],
      "anonymous": false
    },
    {
      "type": "event",
      "name": "ClaimERC20",
      "inputs": [
        {
          "name": "vault",
          "type": "address",
          "indexed": true,
          "internalType": "address"
        },
        {
          "name": "collection",
          "type": "address",
          "indexed": true,
          "internalType": "address"
        },
        {
          "name": "amount",
          "type": "uint256",
          "indexed": false,
          "internalType": "uint256"
        },
        {
          "name": "recipient",
          "type": "address",
          "indexed": true,
          "internalType": "address"
        }
      ],
      "anonymous": false
    },
    {
      "type": "event",
      "name": "ClaimERC721",
      "inputs": [
        {
          "name": "vault",
          "type": "address",
          "indexed": true,
          "internalType": "address"
        },
        {
          "name": "collection",
          "type": "address",
          "indexed": true,
          "internalType": "address"
        },
        {
          "name": "tokenId",
          "type": "uint256",
          "indexed": false,
          "internalType": "uint256"
        },
        {
          "name": "recipient",
          "type": "address",
          "indexed": true,
          "internalType": "address"
        }
      ],
      "anonymous": false
    },
    {
      "type": "event",
      "name": "ClientVaultDeployment",
      "inputs": [
        {
          "name": "name",
          "type": "string",
          "indexed": true,
          "internalType": "string"
        },
        {
          "name": "addr",
          "type": "address",
          "indexed": true,
          "internalType": "address"
        }
      ],
      "anonymous": false
    },
    {
      "type": "event",
      "name": "CollectionAdded",
      "inputs": [
        {
          "name": "name",
          "type": "string",
          "indexed": true,
          "internalType": "string"
        },
        {
          "name": "token",
          "type": "uint8",
          "indexed": true,
          "internalType": "enum UMintStorageSlot.Token"
        },
        {
          "name": "addr",
          "type": "address",
          "indexed": true,
          "internalType": "address"
        }
      ],
      "anonymous": false
    },
    {
      "type": "event",
      "name": "CollectionAmended",
      "inputs": [
        {
          "name": "name",
          "type": "string",
          "indexed": true,
          "internalType": "string"
        },
        {
          "name": "token",
          "type": "uint8",
          "indexed": true,
          "internalType": "enum UMintStorageSlot.Token"
        },
        {
          "name": "addr",
          "type": "address",
          "indexed": true,
          "internalType": "address"
        }
      ],
      "anonymous": false
    },
    {
      "type": "event",
      "name": "CollectionRemoved",
      "inputs": [
        {
          "name": "name",
          "type": "string",
          "indexed": true,
          "internalType": "string"
        },
        {
          "name": "token",
          "type": "uint8",
          "indexed": true,
          "internalType": "enum UMintStorageSlot.Token"
        },
        {
          "name": "addr",
          "type": "address",
          "indexed": true,
          "internalType": "address"
        }
      ],
      "anonymous": false
    },
    {
      "type": "event",
      "name": "Initialized",
      "inputs": [
        {
          "name": "version",
          "type": "uint8",
          "indexed": false,
          "internalType": "uint8"
        }
      ],
      "anonymous": false
    },
    {
      "type": "event",
      "name": "RoleAdminChanged",
      "inputs": [
        {
          "name": "role",
          "type": "bytes32",
          "indexed": true,
          "internalType": "bytes32"
        },
        {
          "name": "previousAdminRole",
          "type": "bytes32",
          "indexed": true,
          "internalType": "bytes32"
        },
        {
          "name": "newAdminRole",
          "type": "bytes32",
          "indexed": true,
          "internalType": "bytes32"
        }
      ],
      "anonymous": false
    },
    {
      "type": "event",
      "name": "RoleGranted",
      "inputs": [
        {
          "name": "role",
          "type": "bytes32",
          "indexed": true,
          "internalType": "bytes32"
        },
        {
          "name": "account",
          "type": "address",
          "indexed": true,
          "internalType": "address"
        },
        {
          "name": "sender",
          "type": "address",
          "indexed": true,
          "internalType": "address"
        }
      ],
      "anonymous": false
    },
    {
      "type": "event",
      "name": "RoleRevoked",
      "inputs": [
        {
          "name": "role",
          "type": "bytes32",
          "indexed": true,
          "internalType": "bytes32"
        },
        {
          "name": "account",
          "type": "address",
          "indexed": true,
          "internalType": "address"
        },
        {
          "name": "sender",
          "type": "address",
          "indexed": true,
          "internalType": "address"
        }
      ],
      "anonymous": false
    },
    {
      "type": "error",
      "name": "DuplicateClientVault",
      "inputs": []
    },
    {
      "type": "error",
      "name": "EOAAddressDetected",
      "inputs": []
    },
    {
      "type": "error",
      "name": "IncorrectParametersProvided",
      "inputs": []
    },
    {
      "type": "error",
      "name": "InvalidClient",
      "inputs": []
    },
    {
      "type": "error",
      "name": "UnsupportedCollection",
      "inputs": []
    },
    {
      "type": "error",
      "name": "ZeroAddressDetected",
      "inputs": []
    }
  ],
  "bytecode": {
    "object": "0x608060405234801561001057600080fd5b5061001961001e565b6100dd565b600054610100900460ff161561008a5760405162461bcd60e51b815260206004820152602760248201527f496e697469616c697a61626c653a20636f6e747261637420697320696e697469604482015266616c697a696e6760c81b606482015260840160405180910390fd5b60005460ff908116146100db576000805460ff191660ff9081179091556040519081527f7f26b83ff96e1f2b6a682f133852f6798a09c465da95921460cefb38474024989060200160405180910390a15b565b6123b080620000ed6000396000f3fe60806040526004361061012a5760003560e01c806354708bc4116100ab578063b6893ea21161006f578063b6893ea21461043a578063c467dda61461045a578063c4d66de81461046f578063d547741f1461048f578063dbc472c4146104af578063f2d1597c146104cf57600080fd5b806354708bc4146103a357806354fd4d50146103c3578063622bfe84146103e557806391d1485414610405578063a217fddf1461042557600080fd5b80632f2ff15d116100f25780632f2ff15d1461021c57806336568abe1461023c57806342b422401461025c5780634f129c531461033d57806350d7a6fd1461038357600080fd5b806301ffc9a71461012f5780630ff79b33146101645780632240f8aa14610191578063248a9ca3146101bc57806328f1a47e146101fa575b600080fd5b34801561013b57600080fd5b5061014f61014a366004611cc8565b6104e4565b60405190151581526020015b60405180910390f35b34801561017057600080fd5b5061018461017f366004611cf2565b61051b565b60405161015b9190611d79565b6101a461019f366004611e65565b6105ad565b6040516001600160a01b03909116815260200161015b565b3480156101c857600080fd5b506101ec6101d7366004611edc565b60009081526065602052604090206001015490565b60405190815260200161015b565b34801561020657600080fd5b5061021a610215366004611f11565b61072d565b005b34801561022857600080fd5b5061021a610237366004611f98565b61094d565b34801561024857600080fd5b5061021a610257366004611f98565b610977565b34801561026857600080fd5b506102fa6040805160808101825260008082526020820181905291810182905260608101919091527f9b9d9b2d5e3d3f628946658685575dea0ea2e783508206834623a2b8247a44f06040805160808101825291546001600160401b038082168452600160401b820481166020850152600160801b8204811692840192909252600160c01b9004166060820152919050565b60405161015b919081516001600160401b039081168252602080840151821690830152604080840151821690830152606092830151169181019190915260800190565b34801561034957600080fd5b5061014f610358366004611fc4565b6001600160a01b0316600090815260008051602061233b833981519152602052604090205460ff1690565b34801561038f57600080fd5b5061021a61039e366004611fdf565b6109fa565b3480156103af57600080fd5b506101a46103be366004611cf2565b610b1d565b3480156103cf57600080fd5b5060005460405160ff909116815260200161015b565b3480156103f157600080fd5b5061021a610400366004612043565b610b5f565b34801561041157600080fd5b5061014f610420366004611f98565b610cca565b34801561043157600080fd5b506101ec600081565b34801561044657600080fd5b506101a4610455366004611e65565b610cf5565b34801561046657600080fd5b506101ec610d92565b34801561047b57600080fd5b5061021a61048a366004611fc4565b610dbc565b34801561049b57600080fd5b5061021a6104aa366004611f98565b610f13565b3480156104bb57600080fd5b5061021a6104ca3660046120b9565b610f38565b3480156104db57600080fd5b506101ec611232565b60006001600160e01b03198216637965db0b60e01b148061051557506301ffc9a760e01b6001600160e01b03198316145b92915050565b604080518082019091526000808252602082015260008051602061235b83398151915260405161054e9085908590612136565b908152604080519182900360200182208282019091528054829060ff16600281111561057c5761057c611d63565b600281111561058d5761058d611d63565b8152905461010090046001600160a01b0316602090910152905092915050565b6000806105b98161125a565b600060008051602061231b8339815191526040516105d890879061216a565b908152604051908190036020019020546001600160a01b03161461060f5760405163356f230760e11b815260040160405180910390fd5b600084604051602001610622919061216a565b6040516020818303038152906040528051906020012060001c905060008185516020870134f59050803b61065557600080fd5b8060008051602061231b83398151915260405161067390899061216a565b90815260405190819003602001902080546001600160a01b03929092166001600160a01b03199092169190911790556106c97f128189f296ef4f48a0ec8cb04b32c9ac4a0714d50ad3e23394e6294891ce693690565b80549060006106d78361219c565b9190505550806001600160a01b0316866040516106f4919061216a565b604051908190038120907fc7ffcc6ece4b4b965c172e4b412680651704abd4be9b13e1bd9efa308c77574d90600090a395945050505050565b610735611232565b61073e8161125a565b600060008051602061235b83398151915260405161075d90889061216a565b908152604080519182900360200182208282019091528054829060ff16600281111561078b5761078b611d63565b600281111561079c5761079c611d63565b815290546001600160a01b03610100909104811660209283015290820151919250166107db57604051630179a91760e01b815260040160405180910390fd5b6002815160028111156107f0576107f0611d63565b1461080e576040516371b9042160e01b815260040160405180910390fd5b600060008051602061231b83398151915260405161082d908a9061216a565b908152604051908190036020019020546001600160a01b031690508061086657604051631b528a2560e31b815260040160405180910390fd5b6020820151604051633d7fe79160e01b81526001600160a01b039182166004820152602481018890526044810187905285821660648201528291821690633d7fe79190608401600060405180830381600087803b1580156108c657600080fd5b505af11580156108da573d6000803e3d6000fd5b50505050846001600160a01b031683602001516001600160a01b0316836001600160a01b03167fa572974ed39a66b0c59d71e3271565d0cb0344e15ea00be97c199084822082478a8a60405161093a929190918252602082015260400190565b60405180910390a4505050505050505050565b6000828152606560205260409020600101546109688161125a565b6109728383611267565b505050565b6001600160a01b03811633146109ec5760405162461bcd60e51b815260206004820152602f60248201527f416363657373436f6e74726f6c3a2063616e206f6e6c792072656e6f756e636560448201526e103937b632b9903337b91039b2b63360891b60648201526084015b60405180910390fd5b6109f682826112ed565b5050565b610a02611232565b610a0b8161125a565b600060008051602061231b833981519152604051610a2a90879061216a565b908152604051908190036020019020546001600160a01b0316905080610a6357604051631b528a2560e31b815260040160405180910390fd5b60405163b7760c8f60e01b8152600481018590526001600160a01b03848116602483015282919082169063b7760c8f90604401600060405180830381600087803b158015610ab057600080fd5b505af1158015610ac4573d6000803e3d6000fd5b50505050836001600160a01b0316826001600160a01b03167fa8363d922dc171313585ca13972873c5732013dc819db64b51ba8b1aa1a1e3e287604051610b0d91815260200190565b60405180910390a3505050505050565b600060008051602061231b833981519152604051610b3e9085908590612136565b908152604051908190036020019020546001600160a01b0316905092915050565b6000610b6a8161125a565b6001600160a01b038316610b9157604051632887dd7560e11b815260040160405180910390fd5b610b9a83611354565b610bb7576040516318d393c760e21b815260040160405180910390fd5b610bc18484611371565b610bde576040516371b9042160e01b815260040160405180910390fd5b600060008051602061235b833981519152604051610bfd90889061216a565b908152604080519182900360200182208282019091528054829060ff166002811115610c2b57610c2b611d63565b6002811115610c3c57610c3c611d63565b8152905461010090046001600160a01b0316602090910152905060008051602061233b8339815191526001600160a01b0385166000908152602091909152604090205460ff16610cb55760208101516001600160a01b0316610ca857610ca3868686611457565b610cc2565b610ca386868686856115a6565b610cc286868686856115a6565b505050505050565b60009182526065602090815260408084206001600160a01b0393909316845291905290205460ff1690565b60008060ff60f81b3085604051602001610d0f919061216a565b60408051601f19818403018152908290528051602091820120875188830120610d7295949391929091016001600160f81b031994909416845260609290921b6bffffffffffffffffffffffff191660018401526015830152603582015260550190565b60408051808303601f190181529190528051602090910120949350505050565b60007f128189f296ef4f48a0ec8cb04b32c9ac4a0714d50ad3e23394e6294891ce69365b54919050565b600054610100900460ff1615808015610ddc5750600054600160ff909116105b80610df65750303b158015610df6575060005460ff166001145b610e595760405162461bcd60e51b815260206004820152602e60248201527f496e697469616c697a61626c653a20636f6e747261637420697320616c72656160448201526d191e481a5b9a5d1a585b1a5e995960921b60648201526084016109e3565b6000805460ff191660011790558015610e7c576000805461ff0019166101001790555b610e87600083611267565b7ff7db13299c8a9e501861f04c20f69a2444829a36a363cfad4b58864709c755607f912c7b37cd4cbc410efff7b0dd160abb3e922341e761b33c41d5f70b47d866625580156109f6576000805461ff0019169055604051600181527f7f26b83ff96e1f2b6a682f133852f6798a09c465da95921460cefb38474024989060200160405180910390a15050565b600082815260656020526040902060010154610f2e8161125a565b61097283836112ed565b610f40611232565b610f498161125a565b600060008051602061235b833981519152604051610f6890879061216a565b908152604080519182900360200182208282019091528054829060ff166002811115610f9657610f96611d63565b6002811115610fa757610fa7611d63565b815290546001600160a01b0361010090910481166020928301529082015191925016610fe657604051630179a91760e01b815260040160405180910390fd5b600281516002811115610ffb57610ffb611d63565b03611019576040516371b9042160e01b815260040160405180910390fd5b600060008051602061231b83398151915260405161103890899061216a565b908152604051908190036020019020546001600160a01b031690508061107157604051631b528a2560e31b815260040160405180910390fd5b8060008351600281111561108757611087611d63565b0361115c5760208301516040516397e10a7960e01b81526001600160a01b039182166004820152602481018890528682166044820152908216906397e10a7990606401600060405180830381600087803b1580156110e457600080fd5b505af11580156110f8573d6000803e3d6000fd5b50505050846001600160a01b031683602001516001600160a01b0316836001600160a01b03167ff09770ff54f95778eff2b3bed3c2b96206b86bebb355ebee4cf69acfac12b0a88960405161114f91815260200190565b60405180910390a4611228565b60208301516040516332756f7960e21b81526001600160a01b0391821660048201526024810188905286821660448201529082169063c9d5bde490606401600060405180830381600087803b1580156111b457600080fd5b505af11580156111c8573d6000803e3d6000fd5b50505050846001600160a01b031683602001516001600160a01b0316836001600160a01b03167fc0c0b2c4914a4829fc8f04fd89e4c4fb30428719e1ddec316634a0c89fc7cf248960405161121f91815260200190565b60405180910390a45b5050505050505050565b60007f912c7b37cd4cbc410efff7b0dd160abb3e922341e761b33c41d5f70b47d86662610db6565b61126481336118b6565b50565b6112718282610cca565b6109f65760008281526065602090815260408083206001600160a01b03851684529091529020805460ff191660011790556112a93390565b6001600160a01b0316816001600160a01b0316837f2f8788117e7eff1d82e926ec794901d17c78024a50270940304540a733656f0d60405160405180910390a45050565b6112f78282610cca565b156109f65760008281526065602090815260408083206001600160a01b0385168085529252808320805460ff1916905551339285917ff6391f5c32d9c69d2a47ea670b442974b53935d1edc7fd64eb21e047a839171b9190a45050565b6000813b8082036113685750600092915050565b50600192915050565b6000600183600281111561138757611387611d63565b03611403576040516301ffc9a760e01b81526380ac58cd60e01b60048201526001600160a01b038316906301ffc9a7906024015b602060405180830381865afa1580156113d8573d6000803e3d6000fd5b505050506040513d601f19601f820116820180604052508101906113fc91906121b5565b9050610515565b600283600281111561141757611417611d63565b0361144f576040516301ffc9a760e01b8152636cdb3d1360e11b60048201526001600160a01b038316906301ffc9a7906024016113bb565b506001610515565b604051806040016040528083600281111561147457611474611d63565b81526001600160a01b03831660209091015260008051602061235b8339815191526040516114a390869061216a565b90815260405190819003602001902081518154829060ff191660018360028111156114d0576114d0611d63565b02179055506020919091015181546001600160a01b0390911661010002610100600160a81b0319909116179055600161151460008051602061233b83398151915290565b6001600160a01b038316600090815260209190915260409020805460ff191691151591909117905561154782600161190f565b806001600160a01b031682600281111561156357611563611d63565b84604051611571919061216a565b604051908190038120907f955b6026fb305b85b6c7e2402c992566de7ae64373f6a731ce94e12a9675b48690600090a4505050565b816116855760008051602061235b8339815191526040516115c890879061216a565b90815260405190819003602001902080546001600160a81b03191690556115fa60008051602061233b83398151915290565b6001600160a01b038416600090815260209190915260408120805460ff1916905561162690859061190f565b826001600160a01b031684600281111561164257611642611d63565b86604051611650919061216a565b604051908190038120907fee5cb45c4e980ee674346d3fb7323c432cb859968c0a1686832daeb7abdc152290600090a46118af565b60208101516001600160a01b03166117425760405180604001604052808560028111156116b4576116b4611d63565b81526001600160a01b03851660209091015260008051602061235b8339815191526040516116e390889061216a565b90815260405190819003602001902081518154829060ff1916600183600281111561171057611710611d63565b02179055506020919091015181546001600160a01b0390911661010002610100600160a81b0319909116179055611854565b826001600160a01b031681602001516001600160a01b0316146117b257602081810180516001600160a01b03908116600090815260008051602061233b8339815191528085526040808320805460ff19908116909155938916948590529382529093529120805490911660011790555b808460028111156117c5576117c5611d63565b908160028111156117d8576117d8611d63565b9052508060008051602061235b8339815191526040516117f990889061216a565b90815260405190819003602001902081518154829060ff1916600183600281111561182657611826611d63565b02179055506020919091015181546001600160a01b0390911661010002610100600160a81b03199091161790555b826001600160a01b031684600281111561187057611870611d63565b8660405161187e919061216a565b604051908190038120907fbcce022a3ddb5aa3f7ad51a588d2a78bb91465dc2753ad35da983be3d7c79ee990600090a45b5050505050565b6118c08282610cca565b6109f6576118cd81611b14565b6118d8836020611b26565b6040516020016118e99291906121d2565b60408051601f198184030181529082905262461bcd60e51b82526109e391600401612247565b604080516080810182527f9b9d9b2d5e3d3f628946658685575dea0ea2e783508206834623a2b8247a44f0546001600160401b038082168352600160401b820481166020840152600160801b8204811693830193909352600160c01b900490911660608201528115611998578051816119878261227a565b6001600160401b03169052506119b1565b8051816119a4826122a0565b6001600160401b03169052505b60008360028111156119c5576119c5611d63565b03611a015781156119f157602081018051906119e08261227a565b6001600160401b0316905250611a73565b602081018051906119e0826122a0565b6001836002811115611a1557611a15611d63565b03611a40578115611a3057604081018051906119e08261227a565b604081018051906119e0826122a0565b8115611a5657606081018051906119e08261227a565b60608101805190611a66826122a0565b6001600160401b03169052505b807f9b9d9b2d5e3d3f628946658685575dea0ea2e783508206834623a2b8247a44f081518154602084015160408501516060909501516001600160401b03908116600160c01b026001600160c01b03968216600160801b02969096166fffffffffffffffffffffffffffffffff928216600160401b026fffffffffffffffffffffffffffffffff199094169190941617919091171617919091179055505050565b60606105156001600160a01b03831660145b60606000611b358360026122c3565b611b409060026122da565b6001600160401b03811115611b5757611b57611dba565b6040519080825280601f01601f191660200182016040528015611b81576020820181803683370190505b509050600360fc1b81600081518110611b9c57611b9c6122ed565b60200101906001600160f81b031916908160001a905350600f60fb1b81600181518110611bcb57611bcb6122ed565b60200101906001600160f81b031916908160001a9053506000611bef8460026122c3565b611bfa9060016122da565b90505b6001811115611c72576f181899199a1a9b1b9c1cb0b131b232b360811b85600f1660108110611c2e57611c2e6122ed565b1a60f81b828281518110611c4457611c446122ed565b60200101906001600160f81b031916908160001a90535060049490941c93611c6b81612303565b9050611bfd565b508315611cc15760405162461bcd60e51b815260206004820181905260248201527f537472696e67733a20686578206c656e67746820696e73756666696369656e7460448201526064016109e3565b9392505050565b600060208284031215611cda57600080fd5b81356001600160e01b031981168114611cc157600080fd5b60008060208385031215611d0557600080fd5b82356001600160401b0380821115611d1c57600080fd5b818501915085601f830112611d3057600080fd5b813581811115611d3f57600080fd5b866020828501011115611d5157600080fd5b60209290920196919550909350505050565b634e487b7160e01b600052602160045260246000fd5b8151604082019060038110611d9e57634e487b7160e01b600052602160045260246000fd5b82526020928301516001600160a01b0316929091019190915290565b634e487b7160e01b600052604160045260246000fd5b60006001600160401b0380841115611dea57611dea611dba565b604051601f8501601f19908116603f01168101908282118183101715611e1257611e12611dba565b81604052809350858152868686011115611e2b57600080fd5b858560208301376000602087830101525050509392505050565b600082601f830112611e5657600080fd5b611cc183833560208501611dd0565b60008060408385031215611e7857600080fd5b82356001600160401b0380821115611e8f57600080fd5b611e9b86838701611e45565b93506020850135915080821115611eb157600080fd5b508301601f81018513611ec357600080fd5b611ed285823560208401611dd0565b9150509250929050565b600060208284031215611eee57600080fd5b5035919050565b80356001600160a01b0381168114611f0c57600080fd5b919050565b600080600080600060a08688031215611f2957600080fd5b85356001600160401b0380821115611f4057600080fd5b611f4c89838a01611e45565b96506020880135915080821115611f6257600080fd5b50611f6f88828901611e45565b9450506040860135925060608601359150611f8c60808701611ef5565b90509295509295909350565b60008060408385031215611fab57600080fd5b82359150611fbb60208401611ef5565b90509250929050565b600060208284031215611fd657600080fd5b611cc182611ef5565b600080600060608486031215611ff457600080fd5b83356001600160401b0381111561200a57600080fd5b61201686828701611e45565b9350506020840135915061202c60408501611ef5565b90509250925092565b801515811461126457600080fd5b6000806000806080858703121561205957600080fd5b84356001600160401b0381111561206f57600080fd5b61207b87828801611e45565b94505060208501356003811061209057600080fd5b925061209e60408601611ef5565b915060608501356120ae81612035565b939692955090935050565b600080600080608085870312156120cf57600080fd5b84356001600160401b03808211156120e657600080fd5b6120f288838901611e45565b9550602087013591508082111561210857600080fd5b5061211587828801611e45565b9350506040850135915061212b60608601611ef5565b905092959194509250565b8183823760009101908152919050565b60005b83811015612161578181015183820152602001612149565b50506000910152565b6000825161217c818460208701612146565b9190910192915050565b634e487b7160e01b600052601160045260246000fd5b6000600182016121ae576121ae612186565b5060010190565b6000602082840312156121c757600080fd5b8151611cc181612035565b7f416363657373436f6e74726f6c3a206163636f756e742000000000000000000081526000835161220a816017850160208801612146565b7001034b99036b4b9b9b4b733903937b6329607d1b601791840191820152835161223b816028840160208801612146565b01602801949350505050565b6020815260008251806020840152612266816040850160208701612146565b601f01601f19169190910160400192915050565b60006001600160401b0380831681810361229657612296612186565b6001019392505050565b60006001600160401b038216806122b9576122b9612186565b6000190192915050565b808202811582820484141761051557610515612186565b8082018082111561051557610515612186565b634e487b7160e01b600052603260045260246000fd5b60008161231257612312612186565b50600019019056fe913809dc77207024d42c149a6fc49677f1a7996ddfb76a2ad70c002de11d2165747e8886b87b62f0eade79fdec6b3c3337a6c6564d7c5bb207756ea0c05622b92afd7ced8a1785401fa9d7faea1524b7f175fbee961e055e66c9b7ff9eecad88a2646970667358221220cf110701b9d07b22df2785a3088773978176eb53711222713aa080680b5e136d64736f6c63430008120033",
    "linkReferences": {}
  },
  "methodIdentifiers": {
    "DEFAULT_ADMIN_ROLE()": "a217fddf",
    "claim(string,string,uint256,address)": "dbc472c4",
    "claim(string,string,uint256,uint256,address)": "28f1a47e",
    "claim(string,uint256,address)": "50d7a6fd",
    "claimRole()": "f2d1597c",
    "computeClientVaultAddress(string,bytes)": "b6893ea2",
    "deployClientVault(string,bytes)": "2240f8aa",
    "getClientVaultAddress(string)": "54708bc4",
    "getCollection(string)": "0ff79b33",
    "getRoleAdmin(bytes32)": "248a9ca3",
    "grantRole(bytes32,address)": "2f2ff15d",
    "hasRole(bytes32,address)": "91d14854",
    "initialize(address)": "c4d66de8",
    "isSupported(address)": "4f129c53",
    "manageCollection(string,uint8,address,bool)": "622bfe84",
    "renounceRole(bytes32,address)": "36568abe",
    "revokeRole(bytes32,address)": "d547741f",
    "supportsInterface(bytes4)": "01ffc9a7",
    "totalClientVaults()": "c467dda6",
    "totalCollection()": "42b42240",
    "version()": "54fd4d50"
  },
  "id": 67
}