{
  "abi": [
    {
      "inputs": [],
      "stateMutability": "nonpayable",
      "type": "constructor"
    },
    {
      "inputs": [],
      "name": "UnsupportedCollection",
      "type": "error"
    },
    {
      "inputs": [],
      "name": "ZeroAddressDetected",
      "type": "error"
    },
    {
      "anonymous": false,
      "inputs": [
        {
          "indexed": true,
          "internalType": "address",
          "name": "nft",
          "type": "address"
        },
        {
          "indexed": true,
          "internalType": "uint256",
          "name": "tokenId",
          "type": "uint256"
        },
        {
          "indexed": true,
          "internalType": "address",
          "name": "recipient",
          "type": "address"
        }
      ],
      "name": "Claim",
      "type": "event"
    },
    {
      "anonymous": false,
      "inputs": [
        {
          "indexed": true,
          "internalType": "string",
          "name": "name",
          "type": "string"
        },
        {
          "indexed": true,
          "internalType": "address",
          "name": "addr",
          "type": "address"
        }
      ],
      "name": "CollectionAdded",
      "type": "event"
    },
    {
      "anonymous": false,
      "inputs": [
        {
          "indexed": true,
          "internalType": "string",
          "name": "name",
          "type": "string"
        },
        {
          "indexed": true,
          "internalType": "address",
          "name": "addr",
          "type": "address"
        }
      ],
      "name": "CollectionAmended",
      "type": "event"
    },
    {
      "anonymous": false,
      "inputs": [
        {
          "indexed": true,
          "internalType": "string",
          "name": "name",
          "type": "string"
        },
        {
          "indexed": true,
          "internalType": "address",
          "name": "addr",
          "type": "address"
        }
      ],
      "name": "CollectionRemoved",
      "type": "event"
    },
    {
      "anonymous": false,
      "inputs": [
        {
          "indexed": false,
          "internalType": "uint8",
          "name": "version",
          "type": "uint8"
        }
      ],
      "name": "Initialized",
      "type": "event"
    },
    {
      "anonymous": false,
      "inputs": [
        {
          "indexed": true,
          "internalType": "bytes32",
          "name": "role",
          "type": "bytes32"
        },
        {
          "indexed": true,
          "internalType": "bytes32",
          "name": "previousAdminRole",
          "type": "bytes32"
        },
        {
          "indexed": true,
          "internalType": "bytes32",
          "name": "newAdminRole",
          "type": "bytes32"
        }
      ],
      "name": "RoleAdminChanged",
      "type": "event"
    },
    {
      "anonymous": false,
      "inputs": [
        {
          "indexed": true,
          "internalType": "bytes32",
          "name": "role",
          "type": "bytes32"
        },
        {
          "indexed": true,
          "internalType": "address",
          "name": "account",
          "type": "address"
        },
        {
          "indexed": true,
          "internalType": "address",
          "name": "sender",
          "type": "address"
        }
      ],
      "name": "RoleGranted",
      "type": "event"
    },
    {
      "anonymous": false,
      "inputs": [
        {
          "indexed": true,
          "internalType": "bytes32",
          "name": "role",
          "type": "bytes32"
        },
        {
          "indexed": true,
          "internalType": "address",
          "name": "account",
          "type": "address"
        },
        {
          "indexed": true,
          "internalType": "address",
          "name": "sender",
          "type": "address"
        }
      ],
      "name": "RoleRevoked",
      "type": "event"
    },
    {
      "inputs": [],
      "name": "DEFAULT_ADMIN_ROLE",
      "outputs": [
        {
          "internalType": "bytes32",
          "name": "",
          "type": "bytes32"
        }
      ],
      "stateMutability": "view",
      "type": "function"
    },
    {
      "inputs": [
        {
          "internalType": "address",
          "name": "nft",
          "type": "address"
        },
        {
          "internalType": "uint256",
          "name": "tokenId",
          "type": "uint256"
        },
        {
          "internalType": "address",
          "name": "recipient",
          "type": "address"
        }
      ],
      "name": "claim",
      "outputs": [],
      "stateMutability": "nonpayable",
      "type": "function"
    },
    {
      "inputs": [],
      "name": "claimRole",
      "outputs": [
        {
          "internalType": "bytes32",
          "name": "",
          "type": "bytes32"
        }
      ],
      "stateMutability": "view",
      "type": "function"
    },
    {
      "inputs": [
        {
          "internalType": "string",
          "name": "name",
          "type": "string"
        }
      ],
      "name": "getCollectionAddress",
      "outputs": [
        {
          "internalType": "address",
          "name": "",
          "type": "address"
        }
      ],
      "stateMutability": "view",
      "type": "function"
    },
    {
      "inputs": [
        {
          "internalType": "bytes32",
          "name": "role",
          "type": "bytes32"
        }
      ],
      "name": "getRoleAdmin",
      "outputs": [
        {
          "internalType": "bytes32",
          "name": "",
          "type": "bytes32"
        }
      ],
      "stateMutability": "view",
      "type": "function"
    },
    {
      "inputs": [
        {
          "internalType": "bytes32",
          "name": "role",
          "type": "bytes32"
        },
        {
          "internalType": "address",
          "name": "account",
          "type": "address"
        }
      ],
      "name": "grantRole",
      "outputs": [],
      "stateMutability": "nonpayable",
      "type": "function"
    },
    {
      "inputs": [
        {
          "internalType": "bytes32",
          "name": "role",
          "type": "bytes32"
        },
        {
          "internalType": "address",
          "name": "account",
          "type": "address"
        }
      ],
      "name": "hasRole",
      "outputs": [
        {
          "internalType": "bool",
          "name": "",
          "type": "bool"
        }
      ],
      "stateMutability": "view",
      "type": "function"
    },
    {
      "inputs": [],
      "name": "initialize",
      "outputs": [],
      "stateMutability": "nonpayable",
      "type": "function"
    },
    {
      "inputs": [
        {
          "internalType": "address",
          "name": "nft",
          "type": "address"
        }
      ],
      "name": "isSupported",
      "outputs": [
        {
          "internalType": "bool",
          "name": "",
          "type": "bool"
        }
      ],
      "stateMutability": "view",
      "type": "function"
    },
    {
      "inputs": [
        {
          "internalType": "string",
          "name": "name",
          "type": "string"
        },
        {
          "internalType": "address",
          "name": "nft",
          "type": "address"
        },
        {
          "internalType": "bool",
          "name": "supported",
          "type": "bool"
        }
      ],
      "name": "manageCollection",
      "outputs": [],
      "stateMutability": "nonpayable",
      "type": "function"
    },
    {
      "inputs": [
        {
          "internalType": "address",
          "name": "",
          "type": "address"
        },
        {
          "internalType": "address",
          "name": "",
          "type": "address"
        },
        {
          "internalType": "uint256",
          "name": "",
          "type": "uint256"
        },
        {
          "internalType": "bytes",
          "name": "",
          "type": "bytes"
        }
      ],
      "name": "onERC721Received",
      "outputs": [
        {
          "internalType": "bytes4",
          "name": "",
          "type": "bytes4"
        }
      ],
      "stateMutability": "view",
      "type": "function"
    },
    {
      "inputs": [
        {
          "internalType": "bytes32",
          "name": "role",
          "type": "bytes32"
        },
        {
          "internalType": "address",
          "name": "account",
          "type": "address"
        }
      ],
      "name": "renounceRole",
      "outputs": [],
      "stateMutability": "nonpayable",
      "type": "function"
    },
    {
      "inputs": [
        {
          "internalType": "bytes32",
          "name": "role",
          "type": "bytes32"
        },
        {
          "internalType": "address",
          "name": "account",
          "type": "address"
        }
      ],
      "name": "revokeRole",
      "outputs": [],
      "stateMutability": "nonpayable",
      "type": "function"
    },
    {
      "inputs": [
        {
          "internalType": "bytes4",
          "name": "interfaceId",
          "type": "bytes4"
        }
      ],
      "name": "supportsInterface",
      "outputs": [
        {
          "internalType": "bool",
          "name": "",
          "type": "bool"
        }
      ],
      "stateMutability": "view",
      "type": "function"
    },
    {
      "inputs": [],
      "name": "totalCollection",
      "outputs": [
        {
          "internalType": "uint256",
          "name": "",
          "type": "uint256"
        }
      ],
      "stateMutability": "view",
      "type": "function"
    },
    {
      "inputs": [],
      "name": "version",
      "outputs": [
        {
          "internalType": "uint8",
          "name": "",
          "type": "uint8"
        }
      ],
      "stateMutability": "view",
      "type": "function"
    }
  ],
  "bytecode": {
    "object": "0x608060405234801561001057600080fd5b5061001961001e565b6100dd565b600054610100900460ff161561008a5760405162461bcd60e51b815260206004820152602760248201527f496e697469616c697a61626c653a20636f6e747261637420697320696e697469604482015266616c697a696e6760c81b606482015260840160405180910390fd5b60005460ff908116146100db576000805460ff191660ff9081179091556040519081527f7f26b83ff96e1f2b6a682f133852f6798a09c465da95921460cefb38474024989060200160405180910390a15b565b6110ec806100ec6000396000f3fe608060405234801561001057600080fd5b50600436106101005760003560e01c80636ea5cf9c11610097578063a11ad04011610066578063a11ad04014610249578063a217fddf14610274578063d547741f1461027c578063f2d1597c1461028f57600080fd5b80636ea5cf9c146102085780638129fc1c1461021b57806391d14854146102235780639e96a2601461023657600080fd5b806336568abe116100d357806336568abe1461019f57806342b42240146101b25780634f129c53146101ba57806354fd4d50146101f357600080fd5b806301ffc9a714610105578063150b7a021461012d578063248a9ca3146101595780632f2ff15d1461018a575b600080fd5b610118610113366004610cb6565b610297565b60405190151581526020015b60405180910390f35b61014061013b366004610d45565b6102ce565b6040516001600160e01b03199091168152602001610124565b61017c610167366004610db4565b60009081526065602052604090206001015490565b604051908152602001610124565b61019d610198366004610dcd565b61031d565b005b61019d6101ad366004610dcd565b610347565b61017c6103ca565b6101186101c8366004610df9565b6001600160a01b03166000908152600080516020611077833981519152602052604090205460ff1690565b60005460405160ff9091168152602001610124565b61019d610216366004610e14565b6103f4565b61019d610477565b610118610231366004610dcd565b61054e565b61019d610244366004610e80565b610579565b61025c610257366004610ebc565b610683565b6040516001600160a01b039091168152602001610124565b61017c600081565b61019d61028a366004610dcd565b6106c5565b61017c6106ea565b60006001600160e01b03198216637965db0b60e01b14806102c857506301ffc9a760e01b6001600160e01b03198316145b92915050565b336000908152600080516020611077833981519152602052604081205460ff1661030b57604051630179a91760e01b815260040160405180910390fd5b50630a85bd0160e11b95945050505050565b60008281526065602052604090206001015461033881610712565b610342838361071f565b505050565b6001600160a01b03811633146103bc5760405162461bcd60e51b815260206004820152602f60248201527f416363657373436f6e74726f6c3a2063616e206f6e6c792072656e6f756e636560448201526e103937b632b9903337b91039b2b63360891b60648201526084015b60405180910390fd5b6103c682826107a5565b5050565b60007f9b9d9b2d5e3d3f628946658685575dea0ea2e783508206834623a2b8247a44f05b54919050565b60006103ff81610712565b6001600160a01b03831661042657604051632887dd7560e11b815260040160405180910390fd5b6001600160a01b0383166000908152600080516020611077833981519152602052604090205460ff1615610465576104608585858561080c565b610470565b610470858585610997565b5050505050565b600054600290610100900460ff16158015610499575060005460ff8083169116105b6104fc5760405162461bcd60e51b815260206004820152602e60248201527f496e697469616c697a61626c653a20636f6e747261637420697320616c72656160448201526d191e481a5b9a5d1a585b1a5e995960921b60648201526084016103b3565b6000805461ffff191660ff83169081176101001761ff0019169091556040519081527f7f26b83ff96e1f2b6a682f133852f6798a09c465da95921460cefb38474024989060200160405180910390a150565b60009182526065602090815260408084206001600160a01b0393909316845291905290205460ff1690565b6105816106ea565b61058a81610712565b6001600160a01b0384166000908152600080516020611077833981519152602052604090205460ff166105d057604051630179a91760e01b815260040160405180910390fd5b604051632142170760e11b81523060048201526001600160a01b038381166024830152604482018590528591908216906342842e0e90606401600060405180830381600087803b15801561062357600080fd5b505af1158015610637573d6000803e3d6000fd5b50505050826001600160a01b031684866001600160a01b03167fa8363d922dc171313585ca13972873c5732013dc819db64b51ba8b1aa1a1e3e260405160405180910390a45050505050565b60006000805160206110978339815191526040516106a49085908590610efe565b908152604051908190036020019020546001600160a01b0316905092915050565b6000828152606560205260409020600101546106e081610712565b61034283836107a5565b60007f912c7b37cd4cbc410efff7b0dd160abb3e922341e761b33c41d5f70b47d866626103ee565b61071c8133610aa8565b50565b610729828261054e565b6103c65760008281526065602090815260408083206001600160a01b03851684529091529020805460ff191660011790556107613390565b6001600160a01b0316816001600160a01b0316837f2f8788117e7eff1d82e926ec794901d17c78024a50270940304540a733656f0d60405160405180910390a45050565b6107af828261054e565b156103c65760008281526065602090815260408083206001600160a01b0385168085529252808320805460ff1916905551339285917ff6391f5c32d9c69d2a47ea670b442974b53935d1edc7fd64eb21e047a839171b9190a45050565b80610904576000805160206110978339815191526040516108309086908690610efe565b90815260405190819003602001902080546001600160a01b031916905561086260008051602061107783398151915290565b6001600160a01b038316600090815260209190915260408120805460ff191690557f9b9d9b2d5e3d3f628946658685575dea0ea2e783508206834623a2b8247a44f08054916108b083610f24565b9190505550816001600160a01b031684846040516108cf929190610efe565b604051908190038120907f484fcd5ed262eac81c298ba5da5a980caa339db94a1eb558ee03e498bc15143690600090a3610991565b816000805160206110978339815191526040516109249087908790610efe565b90815260405190819003602001812080546001600160a01b039384166001600160a01b0319909116179055908316906109609086908690610efe565b604051908190038120907fa38d4abed5b259070422c1fce2d95776985afcba5a3af4037dceededc35f0cd290600090a35b50505050565b806000805160206110978339815191526040516109b79086908690610efe565b90815260405190819003602001902080546001600160a01b03929092166001600160a01b031990921691909117905560016109fd60008051602061107783398151915290565b6001600160a01b038316600090815260209190915260409020805460ff19169115159190911790557f9b9d9b2d5e3d3f628946658685575dea0ea2e783508206834623a2b8247a44f08054906000610a5483610f3b565b9190505550806001600160a01b03168383604051610a73929190610efe565b604051908190038120907fbe1efb11a96074d4f178e267040127058b57ff1cf2e208d005dcac604375bf7790600090a3505050565b610ab2828261054e565b6103c657610abf81610b01565b610aca836020610b13565b604051602001610adb929190610f78565b60408051601f198184030181529082905262461bcd60e51b82526103b391600401610fed565b60606102c86001600160a01b03831660145b60606000610b22836002611020565b610b2d906002611037565b67ffffffffffffffff811115610b4557610b4561104a565b6040519080825280601f01601f191660200182016040528015610b6f576020820181803683370190505b509050600360fc1b81600081518110610b8a57610b8a611060565b60200101906001600160f81b031916908160001a905350600f60fb1b81600181518110610bb957610bb9611060565b60200101906001600160f81b031916908160001a9053506000610bdd846002611020565b610be8906001611037565b90505b6001811115610c60576f181899199a1a9b1b9c1cb0b131b232b360811b85600f1660108110610c1c57610c1c611060565b1a60f81b828281518110610c3257610c32611060565b60200101906001600160f81b031916908160001a90535060049490941c93610c5981610f24565b9050610beb565b508315610caf5760405162461bcd60e51b815260206004820181905260248201527f537472696e67733a20686578206c656e67746820696e73756666696369656e7460448201526064016103b3565b9392505050565b600060208284031215610cc857600080fd5b81356001600160e01b031981168114610caf57600080fd5b80356001600160a01b0381168114610cf757600080fd5b919050565b60008083601f840112610d0e57600080fd5b50813567ffffffffffffffff811115610d2657600080fd5b602083019150836020828501011115610d3e57600080fd5b9250929050565b600080600080600060808688031215610d5d57600080fd5b610d6686610ce0565b9450610d7460208701610ce0565b935060408601359250606086013567ffffffffffffffff811115610d9757600080fd5b610da388828901610cfc565b969995985093965092949392505050565b600060208284031215610dc657600080fd5b5035919050565b60008060408385031215610de057600080fd5b82359150610df060208401610ce0565b90509250929050565b600060208284031215610e0b57600080fd5b610caf82610ce0565b60008060008060608587031215610e2a57600080fd5b843567ffffffffffffffff811115610e4157600080fd5b610e4d87828801610cfc565b9095509350610e60905060208601610ce0565b915060408501358015158114610e7557600080fd5b939692955090935050565b600080600060608486031215610e9557600080fd5b610e9e84610ce0565b925060208401359150610eb360408501610ce0565b90509250925092565b60008060208385031215610ecf57600080fd5b823567ffffffffffffffff811115610ee657600080fd5b610ef285828601610cfc565b90969095509350505050565b8183823760009101908152919050565b634e487b7160e01b600052601160045260246000fd5b600081610f3357610f33610f0e565b506000190190565b600060018201610f4d57610f4d610f0e565b5060010190565b60005b83811015610f6f578181015183820152602001610f57565b50506000910152565b7f416363657373436f6e74726f6c3a206163636f756e7420000000000000000000815260008351610fb0816017850160208801610f54565b7001034b99036b4b9b9b4b733903937b6329607d1b6017918401918201528351610fe1816028840160208801610f54565b01602801949350505050565b602081526000825180602084015261100c816040850160208701610f54565b601f01601f19169190910160400192915050565b80820281158282048414176102c8576102c8610f0e565b808201808211156102c8576102c8610f0e565b634e487b7160e01b600052604160045260246000fd5b634e487b7160e01b600052603260045260246000fdfe747e8886b87b62f0eade79fdec6b3c3337a6c6564d7c5bb207756ea0c05622b953d364a7ce2f85822644d4764a29e2135171f41c9d4f128577f0ff4f34065d6fa2646970667358221220f4af7ce20718278004150c9e279bd8fa5f36685a61bb2b104cc1997cdc1f287964736f6c63430008120033",
    "linkReferences": {}
  },
  "methodIdentifiers": {
    "DEFAULT_ADMIN_ROLE()": "a217fddf",
    "claim(address,uint256,address)": "9e96a260",
    "claimRole()": "f2d1597c",
    "getCollectionAddress(string)": "a11ad040",
    "getRoleAdmin(bytes32)": "248a9ca3",
    "grantRole(bytes32,address)": "2f2ff15d",
    "hasRole(bytes32,address)": "91d14854",
    "initialize()": "8129fc1c",
    "isSupported(address)": "4f129c53",
    "manageCollection(string,address,bool)": "6ea5cf9c",
    "onERC721Received(address,address,uint256,bytes)": "150b7a02",
    "renounceRole(bytes32,address)": "36568abe",
    "revokeRole(bytes32,address)": "d547741f",
    "supportsInterface(bytes4)": "01ffc9a7",
    "totalCollection()": "42b42240",
    "version()": "54fd4d50"
  },
  "id": 69
}