{
  "abi": [
    {
      "type": "constructor",
      "inputs": [],
      "stateMutability": "nonpayable"
    },
    {
      "type": "function",
      "name": "DEFAULT_ADMIN_ROLE",
      "inputs": [],
      "outputs": [
        {
          "name": "",
          "type": "bytes32",
          "internalType": "bytes32"
        }
      ],
      "stateMutability": "view"
    },
    {
      "type": "function",
      "name": "claim",
      "inputs": [
        {
          "name": "client",
          "type": "string",
          "internalType": "string"
        },
        {
          "name": "collection",
          "type": "string",
          "internalType": "string"
        },
        {
          "name": "tokenId",
          "type": "uint256",
          "internalType": "uint256"
        },
        {
          "name": "amount",
          "type": "uint256",
          "internalType": "uint256"
        },
        {
          "name": "recipient",
          "type": "address",
          "internalType": "address"
        }
      ],
      "outputs": [],
      "stateMutability": "nonpayable"
    },
    {
      "type": "function",
      "name": "claim",
      "inputs": [
        {
          "name": "client",
          "type": "string",
          "internalType": "string"
        },
        {
          "name": "amount",
          "type": "uint256",
          "internalType": "uint256"
        },
        {
          "name": "recipient",
          "type": "address",
          "internalType": "address"
        }
      ],
      "outputs": [],
      "stateMutability": "nonpayable"
    },
    {
      "type": "function",
      "name": "claim",
      "inputs": [
        {
          "name": "client",
          "type": "string",
          "internalType": "string"
        },
        {
          "name": "collection",
          "type": "string",
          "internalType": "string"
        },
        {
          "name": "asset",
          "type": "uint256",
          "internalType": "uint256"
        },
        {
          "name": "recipient",
          "type": "address",
          "internalType": "address"
        }
      ],
      "outputs": [],
      "stateMutability": "nonpayable"
    },
    {
      "type": "function",
      "name": "claimRole",
      "inputs": [],
      "outputs": [
        {
          "name": "",
          "type": "bytes32",
          "internalType": "bytes32"
        }
      ],
      "stateMutability": "view"
    },
    {
      "type": "function",
      "name": "computeClientVaultAddress",
      "inputs": [
        {
          "name": "name",
          "type": "string",
          "internalType": "string"
        },
        {
          "name": "bytecode",
          "type": "bytes",
          "internalType": "bytes"
        }
      ],
      "outputs": [
        {
          "name": "",
          "type": "address",
          "internalType": "address"
        }
      ],
      "stateMutability": "view"
    },
    {
      "type": "function",
      "name": "deployClientVault",
      "inputs": [
        {
          "name": "name",
          "type": "string",
          "internalType": "string"
        },
        {
          "name": "bytecode",
          "type": "bytes",
          "internalType": "bytes"
        }
      ],
      "outputs": [
        {
          "name": "",
          "type": "address",
          "internalType": "address"
        }
      ],
      "stateMutability": "payable"
    },
    {
      "type": "function",
      "name": "getClientVaultAddress",
      "inputs": [
        {
          "name": "name",
          "type": "string",
          "internalType": "string"
        }
      ],
      "outputs": [
        {
          "name": "",
          "type": "address",
          "internalType": "address"
        }
      ],
      "stateMutability": "view"
    },
    {
      "type": "function",
      "name": "getCollection",
      "inputs": [
        {
          "name": "name",
          "type": "string",
          "internalType": "string"
        }
      ],
      "outputs": [
        {
          "name": "",
          "type": "tuple",
          "internalType": "struct UMintStorageSlot.Collection",
          "components": [
            {
              "name": "token",
              "type": "uint8",
              "internalType": "enum UMintStorageSlot.Token"
            },
            {
              "name": "addr",
              "type": "address",
              "internalType": "address"
            }
          ]
        }
      ],
      "stateMutability": "view"
    },
    {
      "type": "function",
      "name": "getRoleAdmin",
      "inputs": [
        {
          "name": "role",
          "type": "bytes32",
          "internalType": "bytes32"
        }
      ],
      "outputs": [
        {
          "name": "",
          "type": "bytes32",
          "internalType": "bytes32"
        }
      ],
      "stateMutability": "view"
    },
    {
      "type": "function",
      "name": "grantRole",
      "inputs": [
        {
          "name": "role",
          "type": "bytes32",
          "internalType": "bytes32"
        },
        {
          "name": "account",
          "type": "address",
          "internalType": "address"
        }
      ],
      "outputs": [],
      "stateMutability": "nonpayable"
    },
    {
      "type": "function",
      "name": "hasRole",
      "inputs": [
        {
          "name": "role",
          "type": "bytes32",
          "internalType": "bytes32"
        },
        {
          "name": "account",
          "type": "address",
          "internalType": "address"
        }
      ],
      "outputs": [
        {
          "name": "",
          "type": "bool",
          "internalType": "bool"
        }
      ],
      "stateMutability": "view"
    },
    {
      "type": "function",
      "name": "initialize",
      "inputs": [],
      "outputs": [],
      "stateMutability": "nonpayable"
    },
    {
      "type": "function",
      "name": "isSupported",
      "inputs": [
        {
          "name": "nft",
          "type": "address",
          "internalType": "address"
        }
      ],
      "outputs": [
        {
          "name": "",
          "type": "bool",
          "internalType": "bool"
        }
      ],
      "stateMutability": "view"
    },
    {
      "type": "function",
      "name": "manageCollection",
      "inputs": [
        {
          "name": "name",
          "type": "string",
          "internalType": "string"
        },
        {
          "name": "token",
          "type": "uint8",
          "internalType": "enum UMintStorageSlot.Token"
        },
        {
          "name": "asset",
          "type": "address",
          "internalType": "address"
        },
        {
          "name": "supported",
          "type": "bool",
          "internalType": "bool"
        }
      ],
      "outputs": [],
      "stateMutability": "nonpayable"
    },
    {
      "type": "function",
      "name": "renounceRole",
      "inputs": [
        {
          "name": "role",
          "type": "bytes32",
          "internalType": "bytes32"
        },
        {
          "name": "account",
          "type": "address",
          "internalType": "address"
        }
      ],
      "outputs": [],
      "stateMutability": "nonpayable"
    },
    {
      "type": "function",
      "name": "revokeRole",
      "inputs": [
        {
          "name": "role",
          "type": "bytes32",
          "internalType": "bytes32"
        },
        {
          "name": "account",
          "type": "address",
          "internalType": "address"
        }
      ],
      "outputs": [],
      "stateMutability": "nonpayable"
    },
    {
      "type": "function",
      "name": "supportsInterface",
      "inputs": [
        {
          "name": "interfaceId",
          "type": "bytes4",
          "internalType": "bytes4"
        }
      ],
      "outputs": [
        {
          "name": "",
          "type": "bool",
          "internalType": "bool"
        }
      ],
      "stateMutability": "view"
    },
    {
      "type": "function",
      "name": "totalClientVaults",
      "inputs": [],
      "outputs": [
        {
          "name": "",
          "type": "uint256",
          "internalType": "uint256"
        }
      ],
      "stateMutability": "view"
    },
    {
      "type": "function",
      "name": "totalCollection",
      "inputs": [],
      "outputs": [
        {
          "name": "",
          "type": "tuple",
          "internalType": "struct UMintStorageSlot.TotalCollection",
          "components": [
            {
              "name": "total",
              "type": "uint64",
              "internalType": "uint64"
            },
            {
              "name": "erc20",
              "type": "uint64",
              "internalType": "uint64"
            },
            {
              "name": "erc721",
              "type": "uint64",
              "internalType": "uint64"
            },
            {
              "name": "erc1155",
              "type": "uint64",
              "internalType": "uint64"
            }
          ]
        }
      ],
      "stateMutability": "view"
    },
    {
      "type": "function",
      "name": "version",
      "inputs": [],
      "outputs": [
        {
          "name": "",
          "type": "uint8",
          "internalType": "uint8"
        }
      ],
      "stateMutability": "view"
    },
    {
      "type": "event",
      "name": "Claim",
      "inputs": [
        {
          "name": "vault",
          "type": "address",
          "indexed": true,
          "internalType": "address"
        },
        {
          "name": "amount",
          "type": "uint256",
          "indexed": false,
          "internalType": "uint256"
        },
        {
          "name": "recipient",
          "type": "address",
          "indexed": true,
          "internalType": "address"
        }
      ],
      "anonymous": false
    },
    {
      "type": "event",
      "name": "ClaimERC1155",
      "inputs": [
        {
          "name": "vault",
          "type": "address",
          "indexed": true,
          "internalType": "address"
        },
        {
          "name": "collection",
          "type": "address",
          "indexed": true,
          "internalType": "address"
        },
        {
          "name": "tokenId",
          "type": "uint256",
          "indexed": false,
          "internalType": "uint256"
        },
        {
          "name": "amount",
          "type": "uint256",
          "indexed": false,
          "internalType": "uint256"
        },
        {
          "name": "recipient",
          "type": "address",
          "indexed": true,
          "internalType": "address"
        }
      ],
      "anonymous": false
    },
    {
      "type": "event",
      "name": "ClaimERC20",
      "inputs": [
        {
          "name": "vault",
          "type": "address",
          "indexed": true,
          "internalType": "address"
        },
        {
          "name": "collection",
          "type": "address",
          "indexed": true,
          "internalType": "address"
        },
        {
          "name": "amount",
          "type": "uint256",
          "indexed": false,
          "internalType": "uint256"
        },
        {
          "name": "recipient",
          "type": "address",
          "indexed": true,
          "internalType": "address"
        }
      ],
      "anonymous": false
    },
    {
      "type": "event",
      "name": "ClaimERC721",
      "inputs": [
        {
          "name": "vault",
          "type": "address",
          "indexed": true,
          "internalType": "address"
        },
        {
          "name": "collection",
          "type": "address",
          "indexed": true,
          "internalType": "address"
        },
        {
          "name": "tokenId",
          "type": "uint256",
          "indexed": false,
          "internalType": "uint256"
        },
        {
          "name": "recipient",
          "type": "address",
          "indexed": true,
          "internalType": "address"
        }
      ],
      "anonymous": false
    },
    {
      "type": "event",
      "name": "ClientVaultDeployment",
      "inputs": [
        {
          "name": "name",
          "type": "string",
          "indexed": true,
          "internalType": "string"
        },
        {
          "name": "addr",
          "type": "address",
          "indexed": true,
          "internalType": "address"
        }
      ],
      "anonymous": false
    },
    {
      "type": "event",
      "name": "CollectionAdded",
      "inputs": [
        {
          "name": "name",
          "type": "string",
          "indexed": true,
          "internalType": "string"
        },
        {
          "name": "token",
          "type": "uint8",
          "indexed": true,
          "internalType": "enum UMintStorageSlot.Token"
        },
        {
          "name": "addr",
          "type": "address",
          "indexed": true,
          "internalType": "address"
        }
      ],
      "anonymous": false
    },
    {
      "type": "event",
      "name": "CollectionAmended",
      "inputs": [
        {
          "name": "name",
          "type": "string",
          "indexed": true,
          "internalType": "string"
        },
        {
          "name": "token",
          "type": "uint8",
          "indexed": true,
          "internalType": "enum UMintStorageSlot.Token"
        },
        {
          "name": "addr",
          "type": "address",
          "indexed": true,
          "internalType": "address"
        }
      ],
      "anonymous": false
    },
    {
      "type": "event",
      "name": "CollectionRemoved",
      "inputs": [
        {
          "name": "name",
          "type": "string",
          "indexed": true,
          "internalType": "string"
        },
        {
          "name": "token",
          "type": "uint8",
          "indexed": true,
          "internalType": "enum UMintStorageSlot.Token"
        },
        {
          "name": "addr",
          "type": "address",
          "indexed": true,
          "internalType": "address"
        }
      ],
      "anonymous": false
    },
    {
      "type": "event",
      "name": "Initialized",
      "inputs": [
        {
          "name": "version",
          "type": "uint8",
          "indexed": false,
          "internalType": "uint8"
        }
      ],
      "anonymous": false
    },
    {
      "type": "event",
      "name": "RoleAdminChanged",
      "inputs": [
        {
          "name": "role",
          "type": "bytes32",
          "indexed": true,
          "internalType": "bytes32"
        },
        {
          "name": "previousAdminRole",
          "type": "bytes32",
          "indexed": true,
          "internalType": "bytes32"
        },
        {
          "name": "newAdminRole",
          "type": "bytes32",
          "indexed": true,
          "internalType": "bytes32"
        }
      ],
      "anonymous": false
    },
    {
      "type": "event",
      "name": "RoleGranted",
      "inputs": [
        {
          "name": "role",
          "type": "bytes32",
          "indexed": true,
          "internalType": "bytes32"
        },
        {
          "name": "account",
          "type": "address",
          "indexed": true,
          "internalType": "address"
        },
        {
          "name": "sender",
          "type": "address",
          "indexed": true,
          "internalType": "address"
        }
      ],
      "anonymous": false
    },
    {
      "type": "event",
      "name": "RoleRevoked",
      "inputs": [
        {
          "name": "role",
          "type": "bytes32",
          "indexed": true,
          "internalType": "bytes32"
        },
        {
          "name": "account",
          "type": "address",
          "indexed": true,
          "internalType": "address"
        },
        {
          "name": "sender",
          "type": "address",
          "indexed": true,
          "internalType": "address"
        }
      ],
      "anonymous": false
    },
    {
      "type": "error",
      "name": "DuplicateClientVault",
      "inputs": []
    },
    {
      "type": "error",
      "name": "EOAAddressDetected",
      "inputs": []
    },
    {
      "type": "error",
      "name": "IncorrectParametersProvided",
      "inputs": []
    },
    {
      "type": "error",
      "name": "InvalidClient",
      "inputs": []
    },
    {
      "type": "error",
      "name": "UnsupportedCollection",
      "inputs": []
    },
    {
      "type": "error",
      "name": "ZeroAddressDetected",
      "inputs": []
    }
  ],
  "bytecode": {
    "object": "0x608060405234801561001057600080fd5b5061001961001e565b6100dd565b600054610100900460ff161561008a5760405162461bcd60e51b815260206004820152602760248201527f496e697469616c697a61626c653a20636f6e747261637420697320696e697469604482015266616c697a696e6760c81b606482015260840160405180910390fd5b60005460ff908116146100db576000805460ff191660ff9081179091556040519081527f7f26b83ff96e1f2b6a682f133852f6798a09c465da95921460cefb38474024989060200160405180910390a15b565b61232580620000ed6000396000f3fe60806040526004361061012a5760003560e01c806354708bc4116100ab578063a217fddf1161006f578063a217fddf1461043a578063b6893ea21461044f578063c467dda61461046f578063d547741f14610484578063dbc472c4146104a4578063f2d1597c146104c457600080fd5b806354708bc4146103a357806354fd4d50146103c3578063622bfe84146103e55780638129fc1c1461040557806391d148541461041a57600080fd5b80632f2ff15d116100f25780632f2ff15d1461021c57806336568abe1461023c57806342b422401461025c5780634f129c531461033d57806350d7a6fd1461038357600080fd5b806301ffc9a71461012f5780630ff79b33146101645780632240f8aa14610191578063248a9ca3146101bc57806328f1a47e146101fa575b600080fd5b34801561013b57600080fd5b5061014f61014a366004611c3d565b6104d9565b60405190151581526020015b60405180910390f35b34801561017057600080fd5b5061018461017f366004611c67565b610510565b60405161015b9190611cee565b6101a461019f366004611dda565b6105a2565b6040516001600160a01b03909116815260200161015b565b3480156101c857600080fd5b506101ec6101d7366004611e51565b60009081526065602052604090206001015490565b60405190815260200161015b565b34801561020657600080fd5b5061021a610215366004611e86565b610722565b005b34801561022857600080fd5b5061021a610237366004611f0d565b610942565b34801561024857600080fd5b5061021a610257366004611f0d565b61096c565b34801561026857600080fd5b506102fa6040805160808101825260008082526020820181905291810182905260608101919091527f9b9d9b2d5e3d3f628946658685575dea0ea2e783508206834623a2b8247a44f06040805160808101825291546001600160401b038082168452600160401b820481166020850152600160801b8204811692840192909252600160c01b9004166060820152919050565b60405161015b919081516001600160401b039081168252602080840151821690830152604080840151821690830152606092830151169181019190915260800190565b34801561034957600080fd5b5061014f610358366004611f39565b6001600160a01b031660009081526000805160206122b0833981519152602052604090205460ff1690565b34801561038f57600080fd5b5061021a61039e366004611f54565b6109ef565b3480156103af57600080fd5b506101a46103be366004611c67565b610b12565b3480156103cf57600080fd5b5060005460405160ff909116815260200161015b565b3480156103f157600080fd5b5061021a610400366004611fb8565b610b54565b34801561041157600080fd5b5061021a610cbf565b34801561042657600080fd5b5061014f610435366004611f0d565b610d96565b34801561044657600080fd5b506101ec600081565b34801561045b57600080fd5b506101a461046a366004611dda565b610dc1565b34801561047b57600080fd5b506101ec610e5e565b34801561049057600080fd5b5061021a61049f366004611f0d565b610e88565b3480156104b057600080fd5b5061021a6104bf36600461202e565b610ead565b3480156104d057600080fd5b506101ec6111a7565b60006001600160e01b03198216637965db0b60e01b148061050a57506301ffc9a760e01b6001600160e01b03198316145b92915050565b60408051808201909152600080825260208201526000805160206122d083398151915260405161054390859085906120ab565b908152604080519182900360200182208282019091528054829060ff16600281111561057157610571611cd8565b600281111561058257610582611cd8565b8152905461010090046001600160a01b0316602090910152905092915050565b6000806105ae816111cf565b60006000805160206122908339815191526040516105cd9087906120df565b908152604051908190036020019020546001600160a01b0316146106045760405163356f230760e11b815260040160405180910390fd5b60008460405160200161061791906120df565b6040516020818303038152906040528051906020012060001c905060008185516020870134f59050803b61064a57600080fd5b806000805160206122908339815191526040516106689089906120df565b90815260405190819003602001902080546001600160a01b03929092166001600160a01b03199092169190911790556106be7f128189f296ef4f48a0ec8cb04b32c9ac4a0714d50ad3e23394e6294891ce693690565b80549060006106cc83612111565b9190505550806001600160a01b0316866040516106e991906120df565b604051908190038120907fc7ffcc6ece4b4b965c172e4b412680651704abd4be9b13e1bd9efa308c77574d90600090a395945050505050565b61072a6111a7565b610733816111cf565b60006000805160206122d08339815191526040516107529088906120df565b908152604080519182900360200182208282019091528054829060ff16600281111561078057610780611cd8565b600281111561079157610791611cd8565b815290546001600160a01b03610100909104811660209283015290820151919250166107d057604051630179a91760e01b815260040160405180910390fd5b6002815160028111156107e5576107e5611cd8565b14610803576040516371b9042160e01b815260040160405180910390fd5b6000600080516020612290833981519152604051610822908a906120df565b908152604051908190036020019020546001600160a01b031690508061085b57604051631b528a2560e31b815260040160405180910390fd5b6020820151604051633d7fe79160e01b81526001600160a01b039182166004820152602481018890526044810187905285821660648201528291821690633d7fe79190608401600060405180830381600087803b1580156108bb57600080fd5b505af11580156108cf573d6000803e3d6000fd5b50505050846001600160a01b031683602001516001600160a01b0316836001600160a01b03167fa572974ed39a66b0c59d71e3271565d0cb0344e15ea00be97c199084822082478a8a60405161092f929190918252602082015260400190565b60405180910390a4505050505050505050565b60008281526065602052604090206001015461095d816111cf565b61096783836111dc565b505050565b6001600160a01b03811633146109e15760405162461bcd60e51b815260206004820152602f60248201527f416363657373436f6e74726f6c3a2063616e206f6e6c792072656e6f756e636560448201526e103937b632b9903337b91039b2b63360891b60648201526084015b60405180910390fd5b6109eb8282611262565b5050565b6109f76111a7565b610a00816111cf565b6000600080516020612290833981519152604051610a1f9087906120df565b908152604051908190036020019020546001600160a01b0316905080610a5857604051631b528a2560e31b815260040160405180910390fd5b60405163b7760c8f60e01b8152600481018590526001600160a01b03848116602483015282919082169063b7760c8f90604401600060405180830381600087803b158015610aa557600080fd5b505af1158015610ab9573d6000803e3d6000fd5b50505050836001600160a01b0316826001600160a01b03167fa8363d922dc171313585ca13972873c5732013dc819db64b51ba8b1aa1a1e3e287604051610b0291815260200190565b60405180910390a3505050505050565b6000600080516020612290833981519152604051610b3390859085906120ab565b908152604051908190036020019020546001600160a01b0316905092915050565b6000610b5f816111cf565b6001600160a01b038316610b8657604051632887dd7560e11b815260040160405180910390fd5b610b8f836112c9565b610bac576040516318d393c760e21b815260040160405180910390fd5b610bb684846112e6565b610bd3576040516371b9042160e01b815260040160405180910390fd5b60006000805160206122d0833981519152604051610bf29088906120df565b908152604080519182900360200182208282019091528054829060ff166002811115610c2057610c20611cd8565b6002811115610c3157610c31611cd8565b8152905461010090046001600160a01b031660209091015290506000805160206122b08339815191526001600160a01b0385166000908152602091909152604090205460ff16610caa5760208101516001600160a01b0316610c9d57610c988686866113cc565b610cb7565b610c98868686868561151b565b610cb7868686868561151b565b505050505050565b600054600290610100900460ff16158015610ce1575060005460ff8083169116105b610d445760405162461bcd60e51b815260206004820152602e60248201527f496e697469616c697a61626c653a20636f6e747261637420697320616c72656160448201526d191e481a5b9a5d1a585b1a5e995960921b60648201526084016109d8565b6000805461ffff191660ff83169081176101001761ff0019169091556040519081527f7f26b83ff96e1f2b6a682f133852f6798a09c465da95921460cefb38474024989060200160405180910390a150565b60009182526065602090815260408084206001600160a01b0393909316845291905290205460ff1690565b60008060ff60f81b3085604051602001610ddb91906120df565b60408051601f19818403018152908290528051602091820120875188830120610e3e95949391929091016001600160f81b031994909416845260609290921b6bffffffffffffffffffffffff191660018401526015830152603582015260550190565b60408051808303601f190181529190528051602090910120949350505050565b60007f128189f296ef4f48a0ec8cb04b32c9ac4a0714d50ad3e23394e6294891ce69365b54919050565b600082815260656020526040902060010154610ea3816111cf565b6109678383611262565b610eb56111a7565b610ebe816111cf565b60006000805160206122d0833981519152604051610edd9087906120df565b908152604080519182900360200182208282019091528054829060ff166002811115610f0b57610f0b611cd8565b6002811115610f1c57610f1c611cd8565b815290546001600160a01b0361010090910481166020928301529082015191925016610f5b57604051630179a91760e01b815260040160405180910390fd5b600281516002811115610f7057610f70611cd8565b03610f8e576040516371b9042160e01b815260040160405180910390fd5b6000600080516020612290833981519152604051610fad9089906120df565b908152604051908190036020019020546001600160a01b0316905080610fe657604051631b528a2560e31b815260040160405180910390fd5b80600083516002811115610ffc57610ffc611cd8565b036110d15760208301516040516397e10a7960e01b81526001600160a01b039182166004820152602481018890528682166044820152908216906397e10a7990606401600060405180830381600087803b15801561105957600080fd5b505af115801561106d573d6000803e3d6000fd5b50505050846001600160a01b031683602001516001600160a01b0316836001600160a01b03167ff09770ff54f95778eff2b3bed3c2b96206b86bebb355ebee4cf69acfac12b0a8896040516110c491815260200190565b60405180910390a461119d565b60208301516040516332756f7960e21b81526001600160a01b0391821660048201526024810188905286821660448201529082169063c9d5bde490606401600060405180830381600087803b15801561112957600080fd5b505af115801561113d573d6000803e3d6000fd5b50505050846001600160a01b031683602001516001600160a01b0316836001600160a01b03167fc0c0b2c4914a4829fc8f04fd89e4c4fb30428719e1ddec316634a0c89fc7cf248960405161119491815260200190565b60405180910390a45b5050505050505050565b60007f912c7b37cd4cbc410efff7b0dd160abb3e922341e761b33c41d5f70b47d86662610e82565b6111d9813361182b565b50565b6111e68282610d96565b6109eb5760008281526065602090815260408083206001600160a01b03851684529091529020805460ff1916600117905561121e3390565b6001600160a01b0316816001600160a01b0316837f2f8788117e7eff1d82e926ec794901d17c78024a50270940304540a733656f0d60405160405180910390a45050565b61126c8282610d96565b156109eb5760008281526065602090815260408083206001600160a01b0385168085529252808320805460ff1916905551339285917ff6391f5c32d9c69d2a47ea670b442974b53935d1edc7fd64eb21e047a839171b9190a45050565b6000813b8082036112dd5750600092915050565b50600192915050565b600060018360028111156112fc576112fc611cd8565b03611378576040516301ffc9a760e01b81526380ac58cd60e01b60048201526001600160a01b038316906301ffc9a7906024015b602060405180830381865afa15801561134d573d6000803e3d6000fd5b505050506040513d601f19601f82011682018060405250810190611371919061212a565b905061050a565b600283600281111561138c5761138c611cd8565b036113c4576040516301ffc9a760e01b8152636cdb3d1360e11b60048201526001600160a01b038316906301ffc9a790602401611330565b50600161050a565b60405180604001604052808360028111156113e9576113e9611cd8565b81526001600160a01b0383166020909101526000805160206122d08339815191526040516114189086906120df565b90815260405190819003602001902081518154829060ff1916600183600281111561144557611445611cd8565b02179055506020919091015181546001600160a01b0390911661010002610100600160a81b031990911617905560016114896000805160206122b083398151915290565b6001600160a01b038316600090815260209190915260409020805460ff19169115159190911790556114bc826001611884565b806001600160a01b03168260028111156114d8576114d8611cd8565b846040516114e691906120df565b604051908190038120907f955b6026fb305b85b6c7e2402c992566de7ae64373f6a731ce94e12a9675b48690600090a4505050565b816115fa576000805160206122d083398151915260405161153d9087906120df565b90815260405190819003602001902080546001600160a81b031916905561156f6000805160206122b083398151915290565b6001600160a01b038416600090815260209190915260408120805460ff1916905561159b908590611884565b826001600160a01b03168460028111156115b7576115b7611cd8565b866040516115c591906120df565b604051908190038120907fee5cb45c4e980ee674346d3fb7323c432cb859968c0a1686832daeb7abdc152290600090a4611824565b60208101516001600160a01b03166116b757604051806040016040528085600281111561162957611629611cd8565b81526001600160a01b0385166020909101526000805160206122d08339815191526040516116589088906120df565b90815260405190819003602001902081518154829060ff1916600183600281111561168557611685611cd8565b02179055506020919091015181546001600160a01b0390911661010002610100600160a81b03199091161790556117c9565b826001600160a01b031681602001516001600160a01b03161461172757602081810180516001600160a01b0390811660009081526000805160206122b08339815191528085526040808320805460ff19908116909155938916948590529382529093529120805490911660011790555b8084600281111561173a5761173a611cd8565b9081600281111561174d5761174d611cd8565b905250806000805160206122d083398151915260405161176e9088906120df565b90815260405190819003602001902081518154829060ff1916600183600281111561179b5761179b611cd8565b02179055506020919091015181546001600160a01b0390911661010002610100600160a81b03199091161790555b826001600160a01b03168460028111156117e5576117e5611cd8565b866040516117f391906120df565b604051908190038120907fbcce022a3ddb5aa3f7ad51a588d2a78bb91465dc2753ad35da983be3d7c79ee990600090a45b5050505050565b6118358282610d96565b6109eb5761184281611a89565b61184d836020611a9b565b60405160200161185e929190612147565b60408051601f198184030181529082905262461bcd60e51b82526109d8916004016121bc565b604080516080810182527f9b9d9b2d5e3d3f628946658685575dea0ea2e783508206834623a2b8247a44f0546001600160401b038082168352600160401b820481166020840152600160801b8204811693830193909352600160c01b90049091166060820152811561190d578051816118fc826121ef565b6001600160401b0316905250611926565b80518161191982612215565b6001600160401b03169052505b600083600281111561193a5761193a611cd8565b036119765781156119665760208101805190611955826121ef565b6001600160401b03169052506119e8565b6020810180519061195582612215565b600183600281111561198a5761198a611cd8565b036119b55781156119a55760408101805190611955826121ef565b6040810180519061195582612215565b81156119cb5760608101805190611955826121ef565b606081018051906119db82612215565b6001600160401b03169052505b807f9b9d9b2d5e3d3f628946658685575dea0ea2e783508206834623a2b8247a44f081518154602084015160408501516060909501516001600160401b03908116600160c01b026001600160c01b03968216600160801b02969096166fffffffffffffffffffffffffffffffff928216600160401b026fffffffffffffffffffffffffffffffff199094169190941617919091171617919091179055505050565b606061050a6001600160a01b03831660145b60606000611aaa836002612238565b611ab590600261224f565b6001600160401b03811115611acc57611acc611d2f565b6040519080825280601f01601f191660200182016040528015611af6576020820181803683370190505b509050600360fc1b81600081518110611b1157611b11612262565b60200101906001600160f81b031916908160001a905350600f60fb1b81600181518110611b4057611b40612262565b60200101906001600160f81b031916908160001a9053506000611b64846002612238565b611b6f90600161224f565b90505b6001811115611be7576f181899199a1a9b1b9c1cb0b131b232b360811b85600f1660108110611ba357611ba3612262565b1a60f81b828281518110611bb957611bb9612262565b60200101906001600160f81b031916908160001a90535060049490941c93611be081612278565b9050611b72565b508315611c365760405162461bcd60e51b815260206004820181905260248201527f537472696e67733a20686578206c656e67746820696e73756666696369656e7460448201526064016109d8565b9392505050565b600060208284031215611c4f57600080fd5b81356001600160e01b031981168114611c3657600080fd5b60008060208385031215611c7a57600080fd5b82356001600160401b0380821115611c9157600080fd5b818501915085601f830112611ca557600080fd5b813581811115611cb457600080fd5b866020828501011115611cc657600080fd5b60209290920196919550909350505050565b634e487b7160e01b600052602160045260246000fd5b8151604082019060038110611d1357634e487b7160e01b600052602160045260246000fd5b82526020928301516001600160a01b0316929091019190915290565b634e487b7160e01b600052604160045260246000fd5b60006001600160401b0380841115611d5f57611d5f611d2f565b604051601f8501601f19908116603f01168101908282118183101715611d8757611d87611d2f565b81604052809350858152868686011115611da057600080fd5b858560208301376000602087830101525050509392505050565b600082601f830112611dcb57600080fd5b611c3683833560208501611d45565b60008060408385031215611ded57600080fd5b82356001600160401b0380821115611e0457600080fd5b611e1086838701611dba565b93506020850135915080821115611e2657600080fd5b508301601f81018513611e3857600080fd5b611e4785823560208401611d45565b9150509250929050565b600060208284031215611e6357600080fd5b5035919050565b80356001600160a01b0381168114611e8157600080fd5b919050565b600080600080600060a08688031215611e9e57600080fd5b85356001600160401b0380821115611eb557600080fd5b611ec189838a01611dba565b96506020880135915080821115611ed757600080fd5b50611ee488828901611dba565b9450506040860135925060608601359150611f0160808701611e6a565b90509295509295909350565b60008060408385031215611f2057600080fd5b82359150611f3060208401611e6a565b90509250929050565b600060208284031215611f4b57600080fd5b611c3682611e6a565b600080600060608486031215611f6957600080fd5b83356001600160401b03811115611f7f57600080fd5b611f8b86828701611dba565b93505060208401359150611fa160408501611e6a565b90509250925092565b80151581146111d957600080fd5b60008060008060808587031215611fce57600080fd5b84356001600160401b03811115611fe457600080fd5b611ff087828801611dba565b94505060208501356003811061200557600080fd5b925061201360408601611e6a565b9150606085013561202381611faa565b939692955090935050565b6000806000806080858703121561204457600080fd5b84356001600160401b038082111561205b57600080fd5b61206788838901611dba565b9550602087013591508082111561207d57600080fd5b5061208a87828801611dba565b935050604085013591506120a060608601611e6a565b905092959194509250565b8183823760009101908152919050565b60005b838110156120d65781810151838201526020016120be565b50506000910152565b600082516120f18184602087016120bb565b9190910192915050565b634e487b7160e01b600052601160045260246000fd5b600060018201612123576121236120fb565b5060010190565b60006020828403121561213c57600080fd5b8151611c3681611faa565b7f416363657373436f6e74726f6c3a206163636f756e742000000000000000000081526000835161217f8160178501602088016120bb565b7001034b99036b4b9b9b4b733903937b6329607d1b60179184019182015283516121b08160288401602088016120bb565b01602801949350505050565b60208152600082518060208401526121db8160408501602087016120bb565b601f01601f19169190910160400192915050565b60006001600160401b0380831681810361220b5761220b6120fb565b6001019392505050565b60006001600160401b0382168061222e5761222e6120fb565b6000190192915050565b808202811582820484141761050a5761050a6120fb565b8082018082111561050a5761050a6120fb565b634e487b7160e01b600052603260045260246000fd5b600081612287576122876120fb565b50600019019056fe913809dc77207024d42c149a6fc49677f1a7996ddfb76a2ad70c002de11d2165747e8886b87b62f0eade79fdec6b3c3337a6c6564d7c5bb207756ea0c05622b92afd7ced8a1785401fa9d7faea1524b7f175fbee961e055e66c9b7ff9eecad88a26469706673582212203e252de299f4cf411cf2713522eeddc4c8daed7cefcb84cde57dd8a69b5be65a64736f6c63430008120033",
    "linkReferences": {}
  },
  "methodIdentifiers": {
    "DEFAULT_ADMIN_ROLE()": "a217fddf",
    "claim(string,string,uint256,address)": "dbc472c4",
    "claim(string,string,uint256,uint256,address)": "28f1a47e",
    "claim(string,uint256,address)": "50d7a6fd",
    "claimRole()": "f2d1597c",
    "computeClientVaultAddress(string,bytes)": "b6893ea2",
    "deployClientVault(string,bytes)": "2240f8aa",
    "getClientVaultAddress(string)": "54708bc4",
    "getCollection(string)": "0ff79b33",
    "getRoleAdmin(bytes32)": "248a9ca3",
    "grantRole(bytes32,address)": "2f2ff15d",
    "hasRole(bytes32,address)": "91d14854",
    "initialize()": "8129fc1c",
    "isSupported(address)": "4f129c53",
    "manageCollection(string,uint8,address,bool)": "622bfe84",
    "renounceRole(bytes32,address)": "36568abe",
    "revokeRole(bytes32,address)": "d547741f",
    "supportsInterface(bytes4)": "01ffc9a7",
    "totalClientVaults()": "c467dda6",
    "totalCollection()": "42b42240",
    "version()": "54fd4d50"
  },
  "id": 44
}